{
  "contractName": "ABO",
  "abi": [
    {
      "inputs": [],
      "name": "aboFeeInPercent",
      "outputs": [
        {
          "internalType": "uint256",
          "name": "",
          "type": "uint256"
        }
      ],
      "stateMutability": "view",
      "type": "function",
      "constant": true
    },
    {
      "inputs": [],
      "name": "betterOcean",
      "outputs": [
        {
          "internalType": "address",
          "name": "",
          "type": "address"
        }
      ],
      "stateMutability": "view",
      "type": "function",
      "constant": true
    },
    {
      "inputs": [
        {
          "internalType": "uint256",
          "name": "",
          "type": "uint256"
        }
      ],
      "name": "eventIdToNgoEvent",
      "outputs": [
        {
          "internalType": "uint256",
          "name": "eventID",
          "type": "uint256"
        },
        {
          "internalType": "uint256",
          "name": "projectID",
          "type": "uint256"
        },
        {
          "internalType": "address",
          "name": "ngoAddress",
          "type": "address"
        },
        {
          "internalType": "string",
          "name": "urlToRealLiveData",
          "type": "string"
        }
      ],
      "stateMutability": "view",
      "type": "function",
      "constant": true
    },
    {
      "inputs": [],
      "name": "nextEventId",
      "outputs": [
        {
          "internalType": "uint256",
          "name": "",
          "type": "uint256"
        }
      ],
      "stateMutability": "view",
      "type": "function",
      "constant": true
    },
    {
      "inputs": [],
      "name": "nextProjectId",
      "outputs": [
        {
          "internalType": "uint256",
          "name": "",
          "type": "uint256"
        }
      ],
      "stateMutability": "view",
      "type": "function",
      "constant": true
    },
    {
      "inputs": [
        {
          "internalType": "address",
          "name": "",
          "type": "address"
        }
      ],
      "name": "ngoWallets",
      "outputs": [
        {
          "internalType": "bool",
          "name": "",
          "type": "bool"
        }
      ],
      "stateMutability": "view",
      "type": "function",
      "constant": true
    },
    {
      "inputs": [
        {
          "internalType": "uint256",
          "name": "",
          "type": "uint256"
        }
      ],
      "name": "projectIdToContract",
      "outputs": [
        {
          "internalType": "uint256",
          "name": "projectID",
          "type": "uint256"
        },
        {
          "internalType": "address",
          "name": "ngoAddress",
          "type": "address"
        },
        {
          "internalType": "address",
          "name": "donorAddress",
          "type": "address"
        },
        {
          "internalType": "uint256",
          "name": "donation",
          "type": "uint256"
        },
        {
          "internalType": "string",
          "name": "pointer",
          "type": "string"
        }
      ],
      "stateMutability": "view",
      "type": "function",
      "constant": true
    },
    {
      "inputs": [
        {
          "internalType": "address",
          "name": "_ngoAddress",
          "type": "address"
        }
      ],
      "name": "whitelistNgo",
      "outputs": [],
      "stateMutability": "nonpayable",
      "type": "function"
    },
    {
      "inputs": [
        {
          "internalType": "uint256",
          "name": "_donation",
          "type": "uint256"
        },
        {
          "internalType": "string",
          "name": "_pointer",
          "type": "string"
        }
      ],
      "name": "createContract",
      "outputs": [],
      "stateMutability": "nonpayable",
      "type": "function"
    },
    {
      "inputs": [],
      "name": "getContracts",
      "outputs": [
        {
          "components": [
            {
              "internalType": "uint256",
              "name": "projectID",
              "type": "uint256"
            },
            {
              "internalType": "address",
              "name": "ngoAddress",
              "type": "address"
            },
            {
              "internalType": "address",
              "name": "donorAddress",
              "type": "address"
            },
            {
              "internalType": "uint256",
              "name": "donation",
              "type": "uint256"
            },
            {
              "internalType": "string",
              "name": "pointer",
              "type": "string"
            }
          ],
          "internalType": "struct ABO.abo_contract[]",
          "name": "",
          "type": "tuple[]"
        }
      ],
      "stateMutability": "view",
      "type": "function",
      "constant": true
    },
    {
      "inputs": [
        {
          "internalType": "uint256",
          "name": "_projectId",
          "type": "uint256"
        }
      ],
      "name": "donate",
      "outputs": [],
      "stateMutability": "payable",
      "type": "function",
      "payable": true
    },
    {
      "inputs": [
        {
          "internalType": "uint256",
          "name": "_projectId",
          "type": "uint256"
        },
        {
          "internalType": "string",
          "name": "_pointerToRealLiveData",
          "type": "string"
        }
      ],
      "name": "logNgoEvent",
      "outputs": [],
      "stateMutability": "nonpayable",
      "type": "function"
    },
    {
      "inputs": [],
      "name": "getNgoEvents",
      "outputs": [
        {
          "components": [
            {
              "internalType": "uint256",
              "name": "eventID",
              "type": "uint256"
            },
            {
              "internalType": "uint256",
              "name": "projectID",
              "type": "uint256"
            },
            {
              "internalType": "address",
              "name": "ngoAddress",
              "type": "address"
            },
            {
              "internalType": "string",
              "name": "urlToRealLiveData",
              "type": "string"
            }
          ],
          "internalType": "struct ABO.ngoEvent[]",
          "name": "",
          "type": "tuple[]"
        }
      ],
      "stateMutability": "view",
      "type": "function",
      "constant": true
    },
    {
      "inputs": [],
      "name": "getWallets",
      "outputs": [
        {
          "components": [
            {
              "internalType": "uint256",
              "name": "eventID",
              "type": "uint256"
            },
            {
              "internalType": "uint256",
              "name": "projectID",
              "type": "uint256"
            },
            {
              "internalType": "address",
              "name": "ngoAddress",
              "type": "address"
            },
            {
              "internalType": "string",
              "name": "urlToRealLiveData",
              "type": "string"
            }
          ],
          "internalType": "struct ABO.ngoEvent[]",
          "name": "",
          "type": "tuple[]"
        }
      ],
      "stateMutability": "view",
      "type": "function",
      "constant": true
    }
  ],
  "bytecode": "0x60806040527386d15b422d924d9115986dd7a87ee794caf2cbaf6000806101000a81548173ffffffffffffffffffffffffffffffffffffffff021916908373ffffffffffffffffffffffffffffffffffffffff16021790555060006004556000600555600260065534801561007357600080fd5b50611b20806100836000396000f3fe6080604052600436106100dd5760003560e01c8063acb5c6cd1161007f578063db7a460511610059578063db7a4605146102c7578063e935b7b1146102f2578063e9966f821461031d578063f14faf6f14610348576100dd565b8063acb5c6cd14610233578063bc92088614610273578063c3a2a93a1461029c576100dd565b80639e71ff60116100bb5780639e71ff60146101895780639f9d903a146101b2578063a1263d8f146101dd578063a2b78ef014610208576100dd565b806316071018146100e257806378d796d614610123578063937af34c14610160575b600080fd5b3480156100ee57600080fd5b5061010960048036038101906101049190611256565b610364565b60405161011a95949392919061161c565b60405180910390f35b34801561012f57600080fd5b5061014a60048036038101906101459190611229565b610462565b60405161015791906115e6565b60405180910390f35b34801561016c57600080fd5b5061018760048036038101906101829190611283565b610482565b005b34801561019557600080fd5b506101b060048036038101906101ab9190611229565b6105bd565b005b3480156101be57600080fd5b506101c761066f565b6040516101d49190611601565b60405180910390f35b3480156101e957600080fd5b506101f2610675565b6040516101ff9190611587565b60405180910390f35b34801561021457600080fd5b5061021d610699565b60405161022a9190611601565b60405180910390f35b34801561023f57600080fd5b5061025a60048036038101906102559190611256565b61069f565b60405161026a9493929190611676565b60405180910390f35b34801561027f57600080fd5b5061029a60048036038101906102959190611283565b610777565b005b3480156102a857600080fd5b506102b1610916565b6040516102be91906115a2565b60405180910390f35b3480156102d357600080fd5b506102dc610b28565b6040516102e991906115c4565b60405180910390f35b3480156102fe57600080fd5b50610307610ce4565b6040516103149190611601565b60405180910390f35b34801561032957600080fd5b50610332610cea565b60405161033f91906115c4565b60405180910390f35b610362600480360381019061035d9190611256565b610ea6565b005b60026020528060005260406000206000915090508060000154908060010160009054906101000a900473ffffffffffffffffffffffffffffffffffffffff16908060020160009054906101000a900473ffffffffffffffffffffffffffffffffffffffff16908060030154908060040180546103df90611900565b80601f016020809104026020016040519081016040528092919081815260200182805461040b90611900565b80156104585780601f1061042d57610100808354040283529160200191610458565b820191906000526020600020905b81548152906001019060200180831161043b57829003601f168201915b5050505050905085565b60016020528060005260406000206000915054906101000a900460ff1681565b600160003373ffffffffffffffffffffffffffffffffffffffff1673ffffffffffffffffffffffffffffffffffffffff16815260200190815260200160002060009054906101000a900460ff166104d857600080fd5b6000600560008154809291906104ed90611963565b91905055905060405180608001604052808281526020018481526020013373ffffffffffffffffffffffffffffffffffffffff1681526020018381525060036000838152602001908152602001600020600082015181600001556020820151816001015560408201518160020160006101000a81548173ffffffffffffffffffffffffffffffffffffffff021916908373ffffffffffffffffffffffffffffffffffffffff16021790555060608201518160030190805190602001906105b4929190611053565b50905050505050565b60008054906101000a900473ffffffffffffffffffffffffffffffffffffffff1673ffffffffffffffffffffffffffffffffffffffff163373ffffffffffffffffffffffffffffffffffffffff161461061557600080fd5b60018060008373ffffffffffffffffffffffffffffffffffffffff1673ffffffffffffffffffffffffffffffffffffffff16815260200190815260200160002060006101000a81548160ff02191690831515021790555050565b60055481565b60008054906101000a900473ffffffffffffffffffffffffffffffffffffffff1681565b60065481565b60036020528060005260406000206000915090508060000154908060010154908060020160009054906101000a900473ffffffffffffffffffffffffffffffffffffffff16908060030180546106f490611900565b80601f016020809104026020016040519081016040528092919081815260200182805461072090611900565b801561076d5780601f106107425761010080835404028352916020019161076d565b820191906000526020600020905b81548152906001019060200180831161075057829003601f168201915b5050505050905084565b600160003373ffffffffffffffffffffffffffffffffffffffff1673ffffffffffffffffffffffffffffffffffffffff16815260200190815260200160002060009054906101000a900460ff166107cd57600080fd5b6000600460008154809291906107e290611963565b9190505590506040518060a001604052808281526020013373ffffffffffffffffffffffffffffffffffffffff168152602001600073ffffffffffffffffffffffffffffffffffffffff16815260200184815260200183815250600260008381526020019081526020016000206000820151816000015560208201518160010160006101000a81548173ffffffffffffffffffffffffffffffffffffffff021916908373ffffffffffffffffffffffffffffffffffffffff16021790555060408201518160020160006101000a81548173ffffffffffffffffffffffffffffffffffffffff021916908373ffffffffffffffffffffffffffffffffffffffff16021790555060608201518160030155608082015181600401908051906020019061090d929190611053565b50905050505050565b6060600060045467ffffffffffffffff81111561093657610935611a68565b5b60405190808252806020026020018201604052801561096f57816020015b61095c6110d9565b8152602001906001900390816109545790505b50905060005b600454811015610b2057600260008281526020019081526020016000206040518060a0016040529081600082015481526020016001820160009054906101000a900473ffffffffffffffffffffffffffffffffffffffff1673ffffffffffffffffffffffffffffffffffffffff1673ffffffffffffffffffffffffffffffffffffffff1681526020016002820160009054906101000a900473ffffffffffffffffffffffffffffffffffffffff1673ffffffffffffffffffffffffffffffffffffffff1673ffffffffffffffffffffffffffffffffffffffff16815260200160038201548152602001600482018054610a6d90611900565b80601f0160208091040260200160405190810160405280929190818152602001828054610a9990611900565b8015610ae65780601f10610abb57610100808354040283529160200191610ae6565b820191906000526020600020905b815481529060010190602001808311610ac957829003601f168201915b505050505081525050828281518110610b0257610b01611a39565b5b60200260200101819052508080610b1890611963565b915050610975565b508091505090565b6060600060055467ffffffffffffffff811115610b4857610b47611a68565b5b604051908082528060200260200182016040528015610b8157816020015b610b6e611134565b815260200190600190039081610b665790505b50905060005b600554811015610cdc576003600082815260200190815260200160002060405180608001604052908160008201548152602001600182015481526020016002820160009054906101000a900473ffffffffffffffffffffffffffffffffffffffff1673ffffffffffffffffffffffffffffffffffffffff1673ffffffffffffffffffffffffffffffffffffffff168152602001600382018054610c2990611900565b80601f0160208091040260200160405190810160405280929190818152602001828054610c5590611900565b8015610ca25780601f10610c7757610100808354040283529160200191610ca2565b820191906000526020600020905b815481529060010190602001808311610c8557829003601f168201915b505050505081525050828281518110610cbe57610cbd611a39565b5b60200260200101819052508080610cd490611963565b915050610b87565b508091505090565b60045481565b6060600060055467ffffffffffffffff811115610d0a57610d09611a68565b5b604051908082528060200260200182016040528015610d4357816020015b610d30611134565b815260200190600190039081610d285790505b50905060005b600554811015610e9e576003600082815260200190815260200160002060405180608001604052908160008201548152602001600182015481526020016002820160009054906101000a900473ffffffffffffffffffffffffffffffffffffffff1673ffffffffffffffffffffffffffffffffffffffff1673ffffffffffffffffffffffffffffffffffffffff168152602001600382018054610deb90611900565b80601f0160208091040260200160405190810160405280929190818152602001828054610e1790611900565b8015610e645780601f10610e3957610100808354040283529160200191610e64565b820191906000526020600020905b815481529060010190602001808311610e4757829003601f168201915b505050505081525050828281518110610e8057610e7f611a39565b5b60200260200101819052508080610e9690611963565b915050610d49565b508091505090565b670de0b6b3a76400006002600083815260200190815260200160002060030154610ed091906117e8565b3414610edb57600080fd5b6000606460065434610eed91906117e8565b610ef791906117b7565b905060008134610f079190611842565b905060006002600085815260200190815260200160002060010160009054906101000a900473ffffffffffffffffffffffffffffffffffffffff1690508073ffffffffffffffffffffffffffffffffffffffff166108fc839081150290604051600060405180830381858888f19350505050158015610f8a573d6000803e3d6000fd5b5060008054906101000a900473ffffffffffffffffffffffffffffffffffffffff1673ffffffffffffffffffffffffffffffffffffffff166108fc849081150290604051600060405180830381858888f19350505050158015610ff1573d6000803e3d6000fd5b506000600260008681526020019081526020016000209050338160020160006101000a81548173ffffffffffffffffffffffffffffffffffffffff021916908373ffffffffffffffffffffffffffffffffffffffff1602179055505050505050565b82805461105f90611900565b90600052602060002090601f01602090048101928261108157600085556110c8565b82601f1061109a57805160ff19168380011785556110c8565b828001600101855582156110c8579182015b828111156110c75782518255916020019190600101906110ac565b5b5090506110d59190611172565b5090565b6040518060a0016040528060008152602001600073ffffffffffffffffffffffffffffffffffffffff168152602001600073ffffffffffffffffffffffffffffffffffffffff16815260200160008152602001606081525090565b60405180608001604052806000815260200160008152602001600073ffffffffffffffffffffffffffffffffffffffff168152602001606081525090565b5b8082111561118b576000816000905550600101611173565b5090565b60006111a261119d846116e7565b6116c2565b9050828152602081018484840111156111be576111bd611a9c565b5b6111c98482856118be565b509392505050565b6000813590506111e081611abc565b92915050565b600082601f8301126111fb576111fa611a97565b5b813561120b84826020860161118f565b91505092915050565b60008135905061122381611ad3565b92915050565b60006020828403121561123f5761123e611aa6565b5b600061124d848285016111d1565b91505092915050565b60006020828403121561126c5761126b611aa6565b5b600061127a84828501611214565b91505092915050565b6000806040838503121561129a57611299611aa6565b5b60006112a885828601611214565b925050602083013567ffffffffffffffff8111156112c9576112c8611aa1565b5b6112d5858286016111e6565b9150509250929050565b60006112eb8383611490565b905092915050565b60006112ff8383611506565b905092915050565b61131081611876565b82525050565b61131f81611876565b82525050565b600061133082611738565b61133a8185611773565b93508360208202850161134c85611718565b8060005b85811015611388578484038952815161136985826112df565b945061137483611759565b925060208a01995050600181019050611350565b50829750879550505050505092915050565b60006113a582611743565b6113af8185611784565b9350836020820285016113c185611728565b8060005b858110156113fd57848403895281516113de85826112f3565b94506113e983611766565b925060208a019950506001810190506113c5565b50829750879550505050505092915050565b61141881611888565b82525050565b60006114298261174e565b6114338185611795565b93506114438185602086016118cd565b61144c81611aab565b840191505092915050565b60006114628261174e565b61146c81856117a6565b935061147c8185602086016118cd565b61148581611aab565b840191505092915050565b600060a0830160008301516114a86000860182611569565b5060208301516114bb6020860182611307565b5060408301516114ce6040860182611307565b5060608301516114e16060860182611569565b50608083015184820360808601526114f9828261141e565b9150508091505092915050565b600060808301600083015161151e6000860182611569565b5060208301516115316020860182611569565b5060408301516115446040860182611307565b506060830151848203606086015261155c828261141e565b9150508091505092915050565b611572816118b4565b82525050565b611581816118b4565b82525050565b600060208201905061159c6000830184611316565b92915050565b600060208201905081810360008301526115bc8184611325565b905092915050565b600060208201905081810360008301526115de818461139a565b905092915050565b60006020820190506115fb600083018461140f565b92915050565b60006020820190506116166000830184611578565b92915050565b600060a0820190506116316000830188611578565b61163e6020830187611316565b61164b6040830186611316565b6116586060830185611578565b818103608083015261166a8184611457565b90509695505050505050565b600060808201905061168b6000830187611578565b6116986020830186611578565b6116a56040830185611316565b81810360608301526116b78184611457565b905095945050505050565b60006116cc6116dd565b90506116d88282611932565b919050565b6000604051905090565b600067ffffffffffffffff82111561170257611701611a68565b5b61170b82611aab565b9050602081019050919050565b6000819050602082019050919050565b6000819050602082019050919050565b600081519050919050565b600081519050919050565b600081519050919050565b6000602082019050919050565b6000602082019050919050565b600082825260208201905092915050565b600082825260208201905092915050565b600082825260208201905092915050565b600082825260208201905092915050565b60006117c2826118b4565b91506117cd836118b4565b9250826117dd576117dc6119db565b5b828204905092915050565b60006117f3826118b4565b91506117fe836118b4565b9250817fffffffffffffffffffffffffffffffffffffffffffffffffffffffffffffffff0483118215151615611837576118366119ac565b5b828202905092915050565b600061184d826118b4565b9150611858836118b4565b92508282101561186b5761186a6119ac565b5b828203905092915050565b600061188182611894565b9050919050565b60008115159050919050565b600073ffffffffffffffffffffffffffffffffffffffff82169050919050565b6000819050919050565b82818337600083830152505050565b60005b838110156118eb5780820151818401526020810190506118d0565b838111156118fa576000848401525b50505050565b6000600282049050600182168061191857607f821691505b6020821081141561192c5761192b611a0a565b5b50919050565b61193b82611aab565b810181811067ffffffffffffffff8211171561195a57611959611a68565b5b80604052505050565b600061196e826118b4565b91507fffffffffffffffffffffffffffffffffffffffffffffffffffffffffffffffff8214156119a1576119a06119ac565b5b600182019050919050565b7f4e487b7100000000000000000000000000000000000000000000000000000000600052601160045260246000fd5b7f4e487b7100000000000000000000000000000000000000000000000000000000600052601260045260246000fd5b7f4e487b7100000000000000000000000000000000000000000000000000000000600052602260045260246000fd5b7f4e487b7100000000000000000000000000000000000000000000000000000000600052603260045260246000fd5b7f4e487b7100000000000000000000000000000000000000000000000000000000600052604160045260246000fd5b600080fd5b600080fd5b600080fd5b600080fd5b6000601f19601f8301169050919050565b611ac581611876565b8114611ad057600080fd5b50565b611adc816118b4565b8114611ae757600080fd5b5056fea26469706673582212203e806464f1dae72ac12262dbe31b4b51b54191202eccd44e83dc726ac0a4249d64736f6c63430008070033",
  "immutableReferences": {},
  "source": "// SPDX-License-Identifier: GPL-3.0\n// Solidity program to demonstrate\n// how to create a contract\npragma solidity >=0.7.0 <0.9.0;\npragma abicoder v2;\n// Creating a contract\ncontract ABO {\t\n    // Declaring variable\n    address public betterOcean = 0x86D15B422D924D9115986Dd7A87ee794CAF2cbaF;\n    mapping (address => bool) public ngoWallets;\n    mapping (uint => abo_contract) public projectIdToContract;\n    mapping (uint => ngoEvent) public eventIdToNgoEvent;\n    uint public nextProjectId = 0;\n    uint public nextEventId = 0;\n    uint public aboFeeInPercent = 2;\n\n\n    struct abo_contract{\n        uint projectID;\n        address ngoAddress;\n        address donorAddress;\n        uint donation;\n        string pointer;\n        //bool paid;\n        //string label;\n    }\n\n    struct ngoEvent{\n        uint eventID;\n        uint projectID;\n        address ngoAddress;\n        //uint cost;\n        string urlToRealLiveData;\n    }\n\n    // abo_contract[] public abo_contracts;\n\n    modifier isBetterOcean() {\n        require(msg.sender == betterOcean);\n        _;\n    }\n\n    modifier isValidNgo() {\n        require(ngoWallets[msg.sender]);\n        _;\n    }\n\n    function whitelistNgo(address _ngoAddress) isBetterOcean public {\n        ngoWallets[_ngoAddress] = true;\n    }\n\n    function createContract(uint _donation, string memory _pointer) isValidNgo public {\n        uint projectId = nextProjectId++;\n        projectIdToContract[projectId] = abo_contract(projectId, msg.sender, address(0), _donation, _pointer);\n    }\n\n    function getContracts() public view returns (abo_contract[] memory) {\n        abo_contract [] memory memoryArray = new abo_contract[](nextProjectId);\n        for(uint i = 0; i < nextProjectId; i++) {\n            memoryArray[i] = projectIdToContract[i];\n        }\n        return memoryArray;\n    }\n\n    function donate(uint _projectId) public payable{\n        require(msg.value == projectIdToContract[_projectId].donation * (1 ether));        \n        uint aboFee = msg.value * aboFeeInPercent / 100; \n        uint ngoAmount = msg.value - aboFee; \n        // make a payment to NGO\n        address ngoAddress  = projectIdToContract[_projectId].ngoAddress;\n        payable(ngoAddress).transfer(ngoAmount);\n        // make a payment ABO\n        payable(betterOcean).transfer(aboFee);\n        abo_contract storage myContract = projectIdToContract[_projectId];\n        myContract.donorAddress = msg.sender;\n    } \n\n    function logNgoEvent(uint _projectId, string memory _pointerToRealLiveData) public isValidNgo {\n        uint eventId = nextEventId++;\n        eventIdToNgoEvent[eventId] = ngoEvent(eventId, _projectId, msg.sender, _pointerToRealLiveData);\n\n    }\n\n    function getNgoEvents() public view returns (ngoEvent[] memory) {\n        ngoEvent [] memory eventLog = new ngoEvent[](nextEventId);\n        for(uint i = 0; i < nextEventId; i++) {\n            eventLog[i] = eventIdToNgoEvent[i];\n        }\n        return eventLog;\n    }\n\n    function getWallets() public view returns (ngoEvent[] memory) {\n        ngoEvent [] memory eventLog = new ngoEvent[](nextEventId);\n        for(uint i = 0; i < nextEventId; i++) {\n            eventLog[i] = eventIdToNgoEvent[i];\n        }\n        return eventLog;\n    }\n\n\n\n\n    // function getContract(uint _index) public view returns (abo_contract memory) {\n    //     return abo_contracts[_index];\n    // }\n\n    // function getNextProjectId() public view returns (uint) {\n    //     return nextProjectId;\n    // }\n\n    // function check_whitelistNgo(address _ngoAddress) isBetterOcean public returns (bool){\n    //     return ngoWallets[_ngoAddress];\n    // }\n\n    // function ngo_create(string memory _projectID, address _ngoID, string memory _donorID, string memory _contract_text, string memory _label, uint _contract_value, bool _contract_valid, bool _contract_finished) public {\n    //     abo_contracts.push(abo_contract(_projectID, _ngoID, _donorID, _contract_text, _label, _contract_value, _contract_valid, _contract_finished));\n    // }\n\n    // function donor_accept(string memory _projectID, address _ngoID, string memory _donorID, string memory _contract_text, string memory _label, uint _contract_value, bool _contract_valid, bool _contract_finished) public payable{\n    //     require(msg.value >= 10 ether);\n\n    //     abo_contracts.push(abo_contract(_projectID, _ngoID, _donorID, _contract_text, _label, _contract_value, _contract_valid, _contract_finished)); //needs to modify not create new\n    //     // actua; payment\n    // }\n\n    // function allcontracts() public view returns(abo_contract[] memory) {\n    //     return abo_contracts;\n    // }\n\n    // function getUser(string memory _projectID) public view returns (string memory) {\n    //     return abo_contracts[_projectID].projectID;\n    // }\n//     function transferC() external payable{\n//         }\n    \n//     function transfer(address payable _receiver) external {\n//         _receiver.transfer(10 ether);\n//   }\n}",
  "sourcePath": "/Users/kiliansprenkamp/Desktop/OneDrive - Universitat Zurich UZH/uzh/BlockchainSchool/truffle_project/abetterocean/contracts/ABO.sol",
  "compiler": {
    "name": "solc",
    "version": "0.8.7+commit.e28d00a7.Emscripten.clang"
  },
  "schemaVersion": "3.4.4",
  "updatedAt": "2022-01-27T22:00:05.856Z",
  "networkType": "ethereum",
  "devdoc": {
    "kind": "dev",
    "methods": {},
    "version": 1
  },
  "userdoc": {
    "kind": "user",
    "methods": {},
    "version": 1
  }
}