{
  "contractName": "ABO",
  "abi": [
    {
      "inputs": [
        {
          "internalType": "uint256",
          "name": "",
          "type": "uint256"
        }
      ],
      "name": "abo_contracts",
      "outputs": [
        {
          "internalType": "uint256",
          "name": "projectID",
          "type": "uint256"
        },
        {
          "internalType": "address",
          "name": "ngoAddress",
          "type": "address"
        },
        {
          "internalType": "address",
          "name": "donorID",
          "type": "address"
        },
        {
          "internalType": "uint256",
          "name": "donation",
          "type": "uint256"
        },
        {
          "internalType": "string",
          "name": "pointer",
          "type": "string"
        }
      ],
      "stateMutability": "view",
      "type": "function",
      "constant": true
    },
    {
      "inputs": [],
      "name": "betterOcean",
      "outputs": [
        {
          "internalType": "address",
          "name": "",
          "type": "address"
        }
      ],
      "stateMutability": "view",
      "type": "function",
      "constant": true
    },
    {
      "inputs": [],
      "name": "nextProjectId",
      "outputs": [
        {
          "internalType": "uint256",
          "name": "",
          "type": "uint256"
        }
      ],
      "stateMutability": "view",
      "type": "function",
      "constant": true
    },
    {
      "inputs": [
        {
          "internalType": "address",
          "name": "",
          "type": "address"
        }
      ],
      "name": "ngoWallets",
      "outputs": [
        {
          "internalType": "bool",
          "name": "",
          "type": "bool"
        }
      ],
      "stateMutability": "view",
      "type": "function",
      "constant": true
    },
    {
      "inputs": [
        {
          "internalType": "address",
          "name": "_ngoAddress",
          "type": "address"
        }
      ],
      "name": "whitelistNgo",
      "outputs": [],
      "stateMutability": "nonpayable",
      "type": "function"
    },
    {
      "inputs": [
        {
          "internalType": "uint256",
          "name": "_donation",
          "type": "uint256"
        },
        {
          "internalType": "string",
          "name": "_pointer",
          "type": "string"
        }
      ],
      "name": "createContract",
      "outputs": [],
      "stateMutability": "nonpayable",
      "type": "function"
    },
    {
      "inputs": [],
      "name": "getContracts",
      "outputs": [
        {
          "components": [
            {
              "internalType": "uint256",
              "name": "projectID",
              "type": "uint256"
            },
            {
              "internalType": "address",
              "name": "ngoAddress",
              "type": "address"
            },
            {
              "internalType": "address",
              "name": "donorID",
              "type": "address"
            },
            {
              "internalType": "uint256",
              "name": "donation",
              "type": "uint256"
            },
            {
              "internalType": "string",
              "name": "pointer",
              "type": "string"
            }
          ],
          "internalType": "struct ABO.abo_contract[]",
          "name": "",
          "type": "tuple[]"
        }
      ],
      "stateMutability": "view",
      "type": "function",
      "constant": true
    },
    {
      "inputs": [],
      "name": "getContract",
      "outputs": [
        {
          "components": [
            {
              "internalType": "uint256",
              "name": "projectID",
              "type": "uint256"
            },
            {
              "internalType": "address",
              "name": "ngoAddress",
              "type": "address"
            },
            {
              "internalType": "address",
              "name": "donorID",
              "type": "address"
            },
            {
              "internalType": "uint256",
              "name": "donation",
              "type": "uint256"
            },
            {
              "internalType": "string",
              "name": "pointer",
              "type": "string"
            }
          ],
          "internalType": "struct ABO.abo_contract",
          "name": "",
          "type": "tuple"
        }
      ],
      "stateMutability": "view",
      "type": "function",
      "constant": true
    },
    {
      "inputs": [],
      "name": "getNextProjectId",
      "outputs": [
        {
          "internalType": "uint256",
          "name": "",
          "type": "uint256"
        }
      ],
      "stateMutability": "view",
      "type": "function",
      "constant": true
    }
  ],
  "bytecode": "0x60806040527386d15b422d924d9115986dd7a87ee794caf2cbaf6000806101000a81548173ffffffffffffffffffffffffffffffffffffffff021916908373ffffffffffffffffffffffffffffffffffffffff160217905550600060025534801561006957600080fd5b50611172806100796000396000f3fe608060405234801561001057600080fd5b50600436106100935760003560e01c8063a1263d8f11610066578063a1263d8f14610120578063aefef5f21461013e578063bc92088614610172578063c3a2a93a1461018e578063e935b7b1146101ac57610093565b806306c88c2b1461009857806378d796d6146100b6578063958f85bd146100e65780639e71ff6014610104575b600080fd5b6100a06101ca565b6040516100ad9190610dc6565b60405180910390f35b6100d060048036038101906100cb9190610a64565b6101d4565b6040516100dd9190610d89565b60405180910390f35b6100ee6101f4565b6040516100fb9190610da4565b60405180910390f35b61011e60048036038101906101199190610a64565b610381565b005b610128610433565b6040516101359190610d4c565b60405180910390f35b61015860048036038101906101539190610a91565b610457565b604051610169959493929190610de1565b60405180910390f35b61018c60048036038101906101879190610abe565b610565565b005b610196610715565b6040516101a39190610d67565b60405180910390f35b6101b46108c6565b6040516101c19190610dc6565b60405180910390f35b6000600254905090565b60016020528060005260406000206000915054906101000a900460ff1681565b6101fc6108cc565b60036000815481106102115761021061108b565b5b90600052602060002090600502016040518060a0016040529081600082015481526020016001820160009054906101000a900473ffffffffffffffffffffffffffffffffffffffff1673ffffffffffffffffffffffffffffffffffffffff1673ffffffffffffffffffffffffffffffffffffffff1681526020016002820160009054906101000a900473ffffffffffffffffffffffffffffffffffffffff1673ffffffffffffffffffffffffffffffffffffffff1673ffffffffffffffffffffffffffffffffffffffff168152602001600382015481526020016004820180546102fa90610f81565b80601f016020809104026020016040519081016040528092919081815260200182805461032690610f81565b80156103735780601f1061034857610100808354040283529160200191610373565b820191906000526020600020905b81548152906001019060200180831161035657829003601f168201915b505050505081525050905090565b60008054906101000a900473ffffffffffffffffffffffffffffffffffffffff1673ffffffffffffffffffffffffffffffffffffffff163373ffffffffffffffffffffffffffffffffffffffff16146103d957600080fd5b60018060008373ffffffffffffffffffffffffffffffffffffffff1673ffffffffffffffffffffffffffffffffffffffff16815260200190815260200160002060006101000a81548160ff02191690831515021790555050565b60008054906101000a900473ffffffffffffffffffffffffffffffffffffffff1681565b6003818154811061046757600080fd5b90600052602060002090600502016000915090508060000154908060010160009054906101000a900473ffffffffffffffffffffffffffffffffffffffff16908060020160009054906101000a900473ffffffffffffffffffffffffffffffffffffffff16908060030154908060040180546104e290610f81565b80601f016020809104026020016040519081016040528092919081815260200182805461050e90610f81565b801561055b5780601f106105305761010080835404028352916020019161055b565b820191906000526020600020905b81548152906001019060200180831161053e57829003601f168201915b5050505050905085565b600160003373ffffffffffffffffffffffffffffffffffffffff1673ffffffffffffffffffffffffffffffffffffffff16815260200190815260200160002060009054906101000a900460ff166105bb57600080fd5b60036040518060a00160405280600260008154809291906105db90610fe4565b9190505581526020013373ffffffffffffffffffffffffffffffffffffffff168152602001600073ffffffffffffffffffffffffffffffffffffffff1681526020018481526020018381525090806001815401808255809150506001900390600052602060002090600502016000909190919091506000820151816000015560208201518160010160006101000a81548173ffffffffffffffffffffffffffffffffffffffff021916908373ffffffffffffffffffffffffffffffffffffffff16021790555060408201518160020160006101000a81548173ffffffffffffffffffffffffffffffffffffffff021916908373ffffffffffffffffffffffffffffffffffffffff16021790555060608201518160030155608082015181600401908051906020019061070e929190610927565b5050505050565b60606003805480602002602001604051908101604052809291908181526020016000905b828210156108bd57838290600052602060002090600502016040518060a0016040529081600082015481526020016001820160009054906101000a900473ffffffffffffffffffffffffffffffffffffffff1673ffffffffffffffffffffffffffffffffffffffff1673ffffffffffffffffffffffffffffffffffffffff1681526020016002820160009054906101000a900473ffffffffffffffffffffffffffffffffffffffff1673ffffffffffffffffffffffffffffffffffffffff1673ffffffffffffffffffffffffffffffffffffffff1681526020016003820154815260200160048201805461082c90610f81565b80601f016020809104026020016040519081016040528092919081815260200182805461085890610f81565b80156108a55780601f1061087a576101008083540402835291602001916108a5565b820191906000526020600020905b81548152906001019060200180831161088857829003601f168201915b50505050508152505081526020019060010190610739565b50505050905090565b60025481565b6040518060a0016040528060008152602001600073ffffffffffffffffffffffffffffffffffffffff168152602001600073ffffffffffffffffffffffffffffffffffffffff16815260200160008152602001606081525090565b82805461093390610f81565b90600052602060002090601f016020900481019282610955576000855561099c565b82601f1061096e57805160ff191683800117855561099c565b8280016001018555821561099c579182015b8281111561099b578251825591602001919060010190610980565b5b5090506109a991906109ad565b5090565b5b808211156109c65760008160009055506001016109ae565b5090565b60006109dd6109d884610e60565b610e3b565b9050828152602081018484840111156109f9576109f86110ee565b5b610a04848285610f3f565b509392505050565b600081359050610a1b8161110e565b92915050565b600082601f830112610a3657610a356110e9565b5b8135610a468482602086016109ca565b91505092915050565b600081359050610a5e81611125565b92915050565b600060208284031215610a7a57610a796110f8565b5b6000610a8884828501610a0c565b91505092915050565b600060208284031215610aa757610aa66110f8565b5b6000610ab584828501610a4f565b91505092915050565b60008060408385031215610ad557610ad46110f8565b5b6000610ae385828601610a4f565b925050602083013567ffffffffffffffff811115610b0457610b036110f3565b5b610b1085828601610a21565b9150509250929050565b6000610b268383610c42565b905092915050565b610b3781610ef7565b82525050565b610b4681610ef7565b82525050565b6000610b5782610ea1565b610b618185610ec4565b935083602082028501610b7385610e91565b8060005b85811015610baf5784840389528151610b908582610b1a565b9450610b9b83610eb7565b925060208a01995050600181019050610b77565b50829750879550505050505092915050565b610bca81610f09565b82525050565b6000610bdb82610eac565b610be58185610ed5565b9350610bf5818560208601610f4e565b610bfe816110fd565b840191505092915050565b6000610c1482610eac565b610c1e8185610ee6565b9350610c2e818560208601610f4e565b610c37816110fd565b840191505092915050565b600060a083016000830151610c5a6000860182610d2e565b506020830151610c6d6020860182610b2e565b506040830151610c806040860182610b2e565b506060830151610c936060860182610d2e565b5060808301518482036080860152610cab8282610bd0565b9150508091505092915050565b600060a083016000830151610cd06000860182610d2e565b506020830151610ce36020860182610b2e565b506040830151610cf66040860182610b2e565b506060830151610d096060860182610d2e565b5060808301518482036080860152610d218282610bd0565b9150508091505092915050565b610d3781610f35565b82525050565b610d4681610f35565b82525050565b6000602082019050610d616000830184610b3d565b92915050565b60006020820190508181036000830152610d818184610b4c565b905092915050565b6000602082019050610d9e6000830184610bc1565b92915050565b60006020820190508181036000830152610dbe8184610cb8565b905092915050565b6000602082019050610ddb6000830184610d3d565b92915050565b600060a082019050610df66000830188610d3d565b610e036020830187610b3d565b610e106040830186610b3d565b610e1d6060830185610d3d565b8181036080830152610e2f8184610c09565b90509695505050505050565b6000610e45610e56565b9050610e518282610fb3565b919050565b6000604051905090565b600067ffffffffffffffff821115610e7b57610e7a6110ba565b5b610e84826110fd565b9050602081019050919050565b6000819050602082019050919050565b600081519050919050565b600081519050919050565b6000602082019050919050565b600082825260208201905092915050565b600082825260208201905092915050565b600082825260208201905092915050565b6000610f0282610f15565b9050919050565b60008115159050919050565b600073ffffffffffffffffffffffffffffffffffffffff82169050919050565b6000819050919050565b82818337600083830152505050565b60005b83811015610f6c578082015181840152602081019050610f51565b83811115610f7b576000848401525b50505050565b60006002820490506001821680610f9957607f821691505b60208210811415610fad57610fac61105c565b5b50919050565b610fbc826110fd565b810181811067ffffffffffffffff82111715610fdb57610fda6110ba565b5b80604052505050565b6000610fef82610f35565b91507fffffffffffffffffffffffffffffffffffffffffffffffffffffffffffffffff8214156110225761102161102d565b5b600182019050919050565b7f4e487b7100000000000000000000000000000000000000000000000000000000600052601160045260246000fd5b7f4e487b7100000000000000000000000000000000000000000000000000000000600052602260045260246000fd5b7f4e487b7100000000000000000000000000000000000000000000000000000000600052603260045260246000fd5b7f4e487b7100000000000000000000000000000000000000000000000000000000600052604160045260246000fd5b600080fd5b600080fd5b600080fd5b600080fd5b6000601f19601f8301169050919050565b61111781610ef7565b811461112257600080fd5b50565b61112e81610f35565b811461113957600080fd5b5056fea2646970667358221220c162fe4294322c715337a363c1be32f53478a03d310092f64b49dbcad488328f64736f6c63430008070033",
  "immutableReferences": {},
  "source": "// SPDX-License-Identifier: GPL-3.0\n// Solidity program to demonstrate\n// how to create a contract\npragma solidity >=0.7.0 <0.9.0;\npragma abicoder v2;\n// Creating a contract\ncontract ABO {\t\n    // Declaring variable\n    address public betterOcean = 0x86D15B422D924D9115986Dd7A87ee794CAF2cbaF;\n    mapping (address => bool) public ngoWallets;\n    uint public nextProjectId = 0; //needs to be private later\n\n\n    struct abo_contract{\n        uint projectID;\n        address ngoAddress;\n        address donorID;\n        uint donation;\n        string pointer;\n        //bool paid;\n        //string label;\n    }\n\n    abo_contract[] public abo_contracts;\n\n    modifier isBetterOcean() {\n        require(msg.sender == betterOcean);\n        _;\n    }\n\n    modifier isValidNgo() {\n        require(ngoWallets[msg.sender]);\n        _;\n    }\n\n    function whitelistNgo(address _ngoAddress) isBetterOcean public {\n        ngoWallets[_ngoAddress] = true;\n    }\n\n    function createContract(uint _donation, string memory _pointer) isValidNgo public {\n        abo_contracts.push(abo_contract(nextProjectId++, msg.sender, address(0), _donation, _pointer));\n    }\n\n    function getContracts() public view returns (abo_contract[] memory) {\n        return abo_contracts;\n    }\n\n    function getContract() public view returns (abo_contract memory) {\n        return abo_contracts[0];\n    }\n\n    function getNextProjectId() public view returns (uint) {\n        return nextProjectId;\n    }\n\n    // function check_whitelistNgo(address _ngoAddress) isBetterOcean public returns (bool){\n    //     return ngoWallets[_ngoAddress];\n    // }\n\n    // function ngo_create(string memory _projectID, address _ngoID, string memory _donorID, string memory _contract_text, string memory _label, uint _contract_value, bool _contract_valid, bool _contract_finished) public {\n    //     abo_contracts.push(abo_contract(_projectID, _ngoID, _donorID, _contract_text, _label, _contract_value, _contract_valid, _contract_finished));\n    // }\n\n    // function donor_accept(string memory _projectID, address _ngoID, string memory _donorID, string memory _contract_text, string memory _label, uint _contract_value, bool _contract_valid, bool _contract_finished) public payable{\n    //     require(msg.value >= 10 ether);\n\n    //     abo_contracts.push(abo_contract(_projectID, _ngoID, _donorID, _contract_text, _label, _contract_value, _contract_valid, _contract_finished)); //needs to modify not create new\n    //     // actua; payment\n    // }\n\n    // function allcontracts() public view returns(abo_contract[] memory) {\n    //     return abo_contracts;\n    // }\n\n    // function getUser(string memory _projectID) public view returns (string memory) {\n    //     return abo_contracts[_projectID].projectID;\n    // }\n//     function transferC() external payable{\n//         }\n    \n//     function transfer(address payable _receiver) external {\n//         _receiver.transfer(10 ether);\n//   }\n}",
  "sourcePath": "/Users/kiliansprenkamp/Desktop/OneDrive - Universitat Zurich UZH/uzh/BlockchainSchool/truffle_project/abetterocean/contracts/ABO.sol",
  "compiler": {
    "name": "solc",
    "version": "0.8.7+commit.e28d00a7.Emscripten.clang"
  },
  "schemaVersion": "3.4.4",
  "updatedAt": "2022-01-27T14:47:24.696Z",
  "networkType": "ethereum",
  "devdoc": {
    "kind": "dev",
    "methods": {},
    "version": 1
  },
  "userdoc": {
    "kind": "user",
    "methods": {},
    "version": 1
  }
}