{
  "contractName": "ABO",
  "abi": [
    {
      "inputs": [
        {
          "internalType": "uint256",
          "name": "",
          "type": "uint256"
        }
      ],
      "name": "abo_contracts",
      "outputs": [
        {
          "internalType": "string",
          "name": "projectID",
          "type": "string"
        },
        {
          "internalType": "address",
          "name": "ngoID",
          "type": "address"
        },
        {
          "internalType": "string",
          "name": "donorID",
          "type": "string"
        },
        {
          "internalType": "string",
          "name": "contract_text",
          "type": "string"
        },
        {
          "internalType": "string",
          "name": "label",
          "type": "string"
        },
        {
          "internalType": "uint256",
          "name": "contract_value",
          "type": "uint256"
        },
        {
          "internalType": "bool",
          "name": "contract_valid",
          "type": "bool"
        },
        {
          "internalType": "bool",
          "name": "contract_finished",
          "type": "bool"
        }
      ],
      "stateMutability": "view",
      "type": "function",
      "constant": true
    },
    {
      "inputs": [],
      "name": "contract_text",
      "outputs": [
        {
          "internalType": "string",
          "name": "",
          "type": "string"
        }
      ],
      "stateMutability": "view",
      "type": "function",
      "constant": true
    },
    {
      "inputs": [],
      "name": "contract_value",
      "outputs": [
        {
          "internalType": "uint256",
          "name": "",
          "type": "uint256"
        }
      ],
      "stateMutability": "view",
      "type": "function",
      "constant": true
    },
    {
      "inputs": [],
      "name": "donorID",
      "outputs": [
        {
          "internalType": "string",
          "name": "",
          "type": "string"
        }
      ],
      "stateMutability": "view",
      "type": "function",
      "constant": true
    },
    {
      "inputs": [],
      "name": "label",
      "outputs": [
        {
          "internalType": "string",
          "name": "",
          "type": "string"
        }
      ],
      "stateMutability": "view",
      "type": "function",
      "constant": true
    },
    {
      "inputs": [],
      "name": "ngoID",
      "outputs": [
        {
          "internalType": "string",
          "name": "",
          "type": "string"
        }
      ],
      "stateMutability": "view",
      "type": "function",
      "constant": true
    },
    {
      "inputs": [],
      "name": "projectID",
      "outputs": [
        {
          "internalType": "string",
          "name": "",
          "type": "string"
        }
      ],
      "stateMutability": "view",
      "type": "function",
      "constant": true
    },
    {
      "inputs": [
        {
          "internalType": "string",
          "name": "_projectID",
          "type": "string"
        },
        {
          "internalType": "address",
          "name": "_ngoID",
          "type": "address"
        },
        {
          "internalType": "string",
          "name": "_donorID",
          "type": "string"
        },
        {
          "internalType": "string",
          "name": "_contract_text",
          "type": "string"
        },
        {
          "internalType": "string",
          "name": "_label",
          "type": "string"
        },
        {
          "internalType": "uint256",
          "name": "_contract_value",
          "type": "uint256"
        },
        {
          "internalType": "bool",
          "name": "_contract_valid",
          "type": "bool"
        },
        {
          "internalType": "bool",
          "name": "_contract_finished",
          "type": "bool"
        }
      ],
      "name": "ngo_create",
      "outputs": [],
      "stateMutability": "nonpayable",
      "type": "function"
    },
    {
      "inputs": [
        {
          "internalType": "string",
          "name": "_projectID",
          "type": "string"
        },
        {
          "internalType": "address",
          "name": "_ngoID",
          "type": "address"
        },
        {
          "internalType": "string",
          "name": "_donorID",
          "type": "string"
        },
        {
          "internalType": "string",
          "name": "_contract_text",
          "type": "string"
        },
        {
          "internalType": "string",
          "name": "_label",
          "type": "string"
        },
        {
          "internalType": "uint256",
          "name": "_contract_value",
          "type": "uint256"
        },
        {
          "internalType": "bool",
          "name": "_contract_valid",
          "type": "bool"
        },
        {
          "internalType": "bool",
          "name": "_contract_finished",
          "type": "bool"
        }
      ],
      "name": "donor_accept",
      "outputs": [],
      "stateMutability": "payable",
      "type": "function",
      "payable": true
    },
    {
      "inputs": [],
      "name": "allcontracts",
      "outputs": [
        {
          "components": [
            {
              "internalType": "string",
              "name": "projectID",
              "type": "string"
            },
            {
              "internalType": "address",
              "name": "ngoID",
              "type": "address"
            },
            {
              "internalType": "string",
              "name": "donorID",
              "type": "string"
            },
            {
              "internalType": "string",
              "name": "contract_text",
              "type": "string"
            },
            {
              "internalType": "string",
              "name": "label",
              "type": "string"
            },
            {
              "internalType": "uint256",
              "name": "contract_value",
              "type": "uint256"
            },
            {
              "internalType": "bool",
              "name": "contract_valid",
              "type": "bool"
            },
            {
              "internalType": "bool",
              "name": "contract_finished",
              "type": "bool"
            }
          ],
          "internalType": "struct ABO.abo_contract[]",
          "name": "",
          "type": "tuple[]"
        }
      ],
      "stateMutability": "view",
      "type": "function",
      "constant": true
    },
    {
      "inputs": [],
      "name": "transferC",
      "outputs": [],
      "stateMutability": "payable",
      "type": "function",
      "payable": true
    },
    {
      "inputs": [
        {
          "internalType": "address payable",
          "name": "_receiver",
          "type": "address"
        }
      ],
      "name": "transfer",
      "outputs": [],
      "stateMutability": "nonpayable",
      "type": "function"
    }
  ],
  "bytecode": "0x608060405234801561001057600080fd5b506117a4806100206000396000f3fe6080604052600436106100a75760003560e01c8063aefef5f211610064578063aefef5f21461018b578063b07442fc146101cf578063cb4774c4146101f8578063e354d51714610223578063ee75a6971461024e578063f6a0efd514610279576100a7565b80631a695230146100ac5780631c2b6e68146100d557806324fd97a814610100578063276a1c8c1461012b5780632f526db1146101565780639c30ea5114610160575b600080fd5b3480156100b857600080fd5b506100d360048036038101906100ce9190611041565b610295565b005b3480156100e157600080fd5b506100ea6102e7565b6040516100f791906113fd565b60405180910390f35b34801561010c57600080fd5b50610115610375565b60405161012291906113fd565b60405180910390f35b34801561013757600080fd5b50610140610403565b60405161014d91906113fd565b60405180910390f35b61015e610491565b005b34801561016c57600080fd5b50610175610493565b60405161018291906113fd565b60405180910390f35b34801561019757600080fd5b506101b260048036038101906101ad9190611194565b610521565b6040516101c698979695949392919061141f565b60405180910390f35b3480156101db57600080fd5b506101f660048036038101906101f1919061106e565b6107d3565b005b34801561020457600080fd5b5061020d610963565b60405161021a91906113fd565b60405180910390f35b34801561022f57600080fd5b506102386109f1565b60405161024591906114b9565b60405180910390f35b34801561025a57600080fd5b506102636109f7565b60405161027091906113db565b60405180910390f35b610293600480360381019061028e919061106e565b610d35565b005b8073ffffffffffffffffffffffffffffffffffffffff166108fc678ac7230489e800009081150290604051600060405180830381858888f193505050501580156102e3573d6000803e3d6000fd5b5050565b600180546102f49061162c565b80601f01602080910402602001604051908101604052809291908181526020018280546103209061162c565b801561036d5780601f106103425761010080835404028352916020019161036d565b820191906000526020600020905b81548152906001019060200180831161035057829003601f168201915b505050505081565b600280546103829061162c565b80601f01602080910402602001604051908101604052809291908181526020018280546103ae9061162c565b80156103fb5780601f106103d0576101008083540402835291602001916103fb565b820191906000526020600020905b8154815290600101906020018083116103de57829003601f168201915b505050505081565b600380546104109061162c565b80601f016020809104026020016040519081016040528092919081815260200182805461043c9061162c565b80156104895780601f1061045e57610100808354040283529160200191610489565b820191906000526020600020905b81548152906001019060200180831161046c57829003601f168201915b505050505081565b565b600080546104a09061162c565b80601f01602080910402602001604051908101604052809291908181526020018280546104cc9061162c565b80156105195780601f106104ee57610100808354040283529160200191610519565b820191906000526020600020905b8154815290600101906020018083116104fc57829003601f168201915b505050505081565b6007818154811061053157600080fd5b90600052602060002090600702016000915090508060000180546105549061162c565b80601f01602080910402602001604051908101604052809291908181526020018280546105809061162c565b80156105cd5780601f106105a2576101008083540402835291602001916105cd565b820191906000526020600020905b8154815290600101906020018083116105b057829003601f168201915b5050505050908060010160009054906101000a900473ffffffffffffffffffffffffffffffffffffffff16908060020180546106089061162c565b80601f01602080910402602001604051908101604052809291908181526020018280546106349061162c565b80156106815780601f1061065657610100808354040283529160200191610681565b820191906000526020600020905b81548152906001019060200180831161066457829003601f168201915b5050505050908060030180546106969061162c565b80601f01602080910402602001604051908101604052809291908181526020018280546106c29061162c565b801561070f5780601f106106e45761010080835404028352916020019161070f565b820191906000526020600020905b8154815290600101906020018083116106f257829003601f168201915b5050505050908060040180546107249061162c565b80601f01602080910402602001604051908101604052809291908181526020018280546107509061162c565b801561079d5780601f106107725761010080835404028352916020019161079d565b820191906000526020600020905b81548152906001019060200180831161078057829003601f168201915b5050505050908060050154908060060160009054906101000a900460ff16908060060160019054906101000a900460ff16905088565b60076040518061010001604052808a81526020018973ffffffffffffffffffffffffffffffffffffffff16815260200188815260200187815260200186815260200185815260200184151581526020018315158152509080600181540180825580915050600190039060005260206000209060070201600090919091909150600082015181600001908051906020019061086e929190610eda565b5060208201518160010160006101000a81548173ffffffffffffffffffffffffffffffffffffffff021916908373ffffffffffffffffffffffffffffffffffffffff16021790555060408201518160020190805190602001906108d2929190610eda565b5060608201518160030190805190602001906108ef929190610eda565b50608082015181600401908051906020019061090c929190610eda565b5060a0820151816005015560c08201518160060160006101000a81548160ff02191690831515021790555060e08201518160060160016101000a81548160ff02191690831515021790555050505050505050505050565b600480546109709061162c565b80601f016020809104026020016040519081016040528092919081815260200182805461099c9061162c565b80156109e95780601f106109be576101008083540402835291602001916109e9565b820191906000526020600020905b8154815290600101906020018083116109cc57829003601f168201915b505050505081565b60055481565b60606007805480602002602001604051908101604052809291908181526020016000905b82821015610d2c578382906000526020600020906007020160405180610100016040529081600082018054610a4f9061162c565b80601f0160208091040260200160405190810160405280929190818152602001828054610a7b9061162c565b8015610ac85780601f10610a9d57610100808354040283529160200191610ac8565b820191906000526020600020905b815481529060010190602001808311610aab57829003601f168201915b505050505081526020016001820160009054906101000a900473ffffffffffffffffffffffffffffffffffffffff1673ffffffffffffffffffffffffffffffffffffffff1673ffffffffffffffffffffffffffffffffffffffff168152602001600282018054610b379061162c565b80601f0160208091040260200160405190810160405280929190818152602001828054610b639061162c565b8015610bb05780601f10610b8557610100808354040283529160200191610bb0565b820191906000526020600020905b815481529060010190602001808311610b9357829003601f168201915b50505050508152602001600382018054610bc99061162c565b80601f0160208091040260200160405190810160405280929190818152602001828054610bf59061162c565b8015610c425780601f10610c1757610100808354040283529160200191610c42565b820191906000526020600020905b815481529060010190602001808311610c2557829003601f168201915b50505050508152602001600482018054610c5b9061162c565b80601f0160208091040260200160405190810160405280929190818152602001828054610c879061162c565b8015610cd45780601f10610ca957610100808354040283529160200191610cd4565b820191906000526020600020905b815481529060010190602001808311610cb757829003601f168201915b50505050508152602001600582015481526020016006820160009054906101000a900460ff161515151581526020016006820160019054906101000a900460ff16151515158152505081526020019060010190610a1b565b50505050905090565b678ac7230489e80000341015610d4a57600080fd5b60076040518061010001604052808a81526020018973ffffffffffffffffffffffffffffffffffffffff168152602001888152602001878152602001868152602001858152602001841515815260200183151581525090806001815401808255809150506001900390600052602060002090600702016000909190919091506000820151816000019080519060200190610de5929190610eda565b5060208201518160010160006101000a81548173ffffffffffffffffffffffffffffffffffffffff021916908373ffffffffffffffffffffffffffffffffffffffff1602179055506040820151816002019080519060200190610e49929190610eda565b506060820151816003019080519060200190610e66929190610eda565b506080820151816004019080519060200190610e83929190610eda565b5060a0820151816005015560c08201518160060160006101000a81548160ff02191690831515021790555060e08201518160060160016101000a81548160ff02191690831515021790555050505050505050505050565b828054610ee69061162c565b90600052602060002090601f016020900481019282610f085760008555610f4f565b82601f10610f2157805160ff1916838001178555610f4f565b82800160010185558215610f4f579182015b82811115610f4e578251825591602001919060010190610f33565b5b509050610f5c9190610f60565b5090565b5b80821115610f79576000816000905550600101610f61565b5090565b6000610f90610f8b846114f9565b6114d4565b905082815260208101848484011115610fac57610fab6116f2565b5b610fb78482856115ea565b509392505050565b600081359050610fce81611712565b92915050565b600081359050610fe381611729565b92915050565b600081359050610ff881611740565b92915050565b600082601f830112611013576110126116ed565b5b8135611023848260208601610f7d565b91505092915050565b60008135905061103b81611757565b92915050565b600060208284031215611057576110566116fc565b5b600061106584828501610fd4565b91505092915050565b600080600080600080600080610100898b03121561108f5761108e6116fc565b5b600089013567ffffffffffffffff8111156110ad576110ac6116f7565b5b6110b98b828c01610ffe565b98505060206110ca8b828c01610fbf565b975050604089013567ffffffffffffffff8111156110eb576110ea6116f7565b5b6110f78b828c01610ffe565b965050606089013567ffffffffffffffff811115611118576111176116f7565b5b6111248b828c01610ffe565b955050608089013567ffffffffffffffff811115611145576111446116f7565b5b6111518b828c01610ffe565b94505060a06111628b828c0161102c565b93505060c06111738b828c01610fe9565b92505060e06111848b828c01610fe9565b9150509295985092959890939650565b6000602082840312156111aa576111a96116fc565b5b60006111b88482850161102c565b91505092915050565b60006111cd83836112f8565b905092915050565b6111de81611590565b82525050565b6111ed81611590565b82525050565b60006111fe8261153a565b611208818561155d565b93508360208202850161121a8561152a565b8060005b85811015611256578484038952815161123785826111c1565b945061124283611550565b925060208a0199505060018101905061121e565b50829750879550505050505092915050565b611271816115b4565b82525050565b611280816115b4565b82525050565b600061129182611545565b61129b818561156e565b93506112ab8185602086016115f9565b6112b481611701565b840191505092915050565b60006112ca82611545565b6112d4818561157f565b93506112e48185602086016115f9565b6112ed81611701565b840191505092915050565b60006101008301600083015184820360008601526113168282611286565b915050602083015161132b60208601826111d5565b50604083015184820360408601526113438282611286565b9150506060830151848203606086015261135d8282611286565b915050608083015184820360808601526113778282611286565b91505060a083015161138c60a08601826113bd565b5060c083015161139f60c0860182611268565b5060e08301516113b260e0860182611268565b508091505092915050565b6113c6816115e0565b82525050565b6113d5816115e0565b82525050565b600060208201905081810360008301526113f581846111f3565b905092915050565b6000602082019050818103600083015261141781846112bf565b905092915050565b600061010082019050818103600083015261143a818b6112bf565b9050611449602083018a6111e4565b818103604083015261145b81896112bf565b9050818103606083015261146f81886112bf565b9050818103608083015261148381876112bf565b905061149260a08301866113cc565b61149f60c0830185611277565b6114ac60e0830184611277565b9998505050505050505050565b60006020820190506114ce60008301846113cc565b92915050565b60006114de6114ef565b90506114ea828261165e565b919050565b6000604051905090565b600067ffffffffffffffff821115611514576115136116be565b5b61151d82611701565b9050602081019050919050565b6000819050602082019050919050565b600081519050919050565b600081519050919050565b6000602082019050919050565b600082825260208201905092915050565b600082825260208201905092915050565b600082825260208201905092915050565b600061159b826115c0565b9050919050565b60006115ad826115c0565b9050919050565b60008115159050919050565b600073ffffffffffffffffffffffffffffffffffffffff82169050919050565b6000819050919050565b82818337600083830152505050565b60005b838110156116175780820151818401526020810190506115fc565b83811115611626576000848401525b50505050565b6000600282049050600182168061164457607f821691505b602082108114156116585761165761168f565b5b50919050565b61166782611701565b810181811067ffffffffffffffff82111715611686576116856116be565b5b80604052505050565b7f4e487b7100000000000000000000000000000000000000000000000000000000600052602260045260246000fd5b7f4e487b7100000000000000000000000000000000000000000000000000000000600052604160045260246000fd5b600080fd5b600080fd5b600080fd5b600080fd5b6000601f19601f8301169050919050565b61171b81611590565b811461172657600080fd5b50565b611732816115a2565b811461173d57600080fd5b50565b611749816115b4565b811461175457600080fd5b50565b611760816115e0565b811461176b57600080fd5b5056fea2646970667358221220295f15befac64665fcf4ae84af5cfa434f5520bdeb7cf1592422de052822be5864736f6c63430008070033",
  "immutableReferences": {},
  "source": "// SPDX-License-Identifier: GPL-3.0\n// Solidity program to demonstrate\n// how to create a contract\npragma solidity >=0.7.0 <0.9.0;\npragma abicoder v2;\n// Creating a contract\ncontract ABO {\t\n    // Declaring variable\n    string public projectID;\n    string public ngoID;\n    string public donorID;\n    string public contract_text;\n    string public label;\n    uint public contract_value;\n    mapping(uint => abo_contract) projectIdToContract;\n\n    struct abo_contract{\n        string projectID;\n        address ngoID;\n        string donorID;\n        string contract_text;\n        string label;\n        uint contract_value;\n        bool contract_valid;\n        bool contract_finished;\n    }\n\n    abo_contract[] public abo_contracts;\n\n\n    function ngo_create(string memory _projectID, address _ngoID, string memory _donorID, string memory _contract_text, string memory _label, uint _contract_value, bool _contract_valid, bool _contract_finished) public {\n        abo_contracts.push(abo_contract(_projectID, _ngoID, _donorID, _contract_text, _label, _contract_value, _contract_valid, _contract_finished));\n    }\n\n    function donor_accept(string memory _projectID, address _ngoID, string memory _donorID, string memory _contract_text, string memory _label, uint _contract_value, bool _contract_valid, bool _contract_finished) public payable{\n        require(msg.value >= 10 ether);\n\n        abo_contracts.push(abo_contract(_projectID, _ngoID, _donorID, _contract_text, _label, _contract_value, _contract_valid, _contract_finished)); //needs to modify not create new\n        // actua; payment\n    }\n\n    function allcontracts() public view returns(abo_contract[] memory) {\n        return abo_contracts;\n    }\n\n    // function getUser(string memory _projectID) public view returns (string memory) {\n    //     return abo_contracts[_projectID].projectID;\n    // }\n    function transferC() external payable{\n        }\n    \n    function transfer(address payable _receiver) external {\n        _receiver.transfer(10 ether);\n  }\n}",
  "sourcePath": "/Users/kiliansprenkamp/Desktop/OneDrive - Universitat Zurich UZH/uzh/BlockchainSchool/truffle_project/abetterocean/contracts/ABO.sol",
  "compiler": {
    "name": "solc",
    "version": "0.8.7+commit.e28d00a7.Emscripten.clang"
  },
  "schemaVersion": "3.4.4",
  "updatedAt": "2022-01-27T12:04:18.821Z",
  "networkType": "ethereum",
  "devdoc": {
    "kind": "dev",
    "methods": {},
    "version": 1
  },
  "userdoc": {
    "kind": "user",
    "methods": {},
    "version": 1
  }
}