{
  "contractName": "ABO",
  "abi": [
    {
      "inputs": [],
      "name": "betterOcean",
      "outputs": [
        {
          "internalType": "address",
          "name": "",
          "type": "address"
        }
      ],
      "stateMutability": "view",
      "type": "function",
      "constant": true
    },
    {
      "inputs": [],
      "name": "nextProjectId",
      "outputs": [
        {
          "internalType": "uint256",
          "name": "",
          "type": "uint256"
        }
      ],
      "stateMutability": "view",
      "type": "function",
      "constant": true
    },
    {
      "inputs": [
        {
          "internalType": "address",
          "name": "",
          "type": "address"
        }
      ],
      "name": "ngoWallets",
      "outputs": [
        {
          "internalType": "bool",
          "name": "",
          "type": "bool"
        }
      ],
      "stateMutability": "view",
      "type": "function",
      "constant": true
    },
    {
      "inputs": [
        {
          "internalType": "uint256",
          "name": "",
          "type": "uint256"
        }
      ],
      "name": "projectIdToContract",
      "outputs": [
        {
          "internalType": "uint256",
          "name": "projectID",
          "type": "uint256"
        },
        {
          "internalType": "address",
          "name": "ngoAddress",
          "type": "address"
        },
        {
          "internalType": "address",
          "name": "donorAddress",
          "type": "address"
        },
        {
          "internalType": "uint256",
          "name": "donation",
          "type": "uint256"
        },
        {
          "internalType": "string",
          "name": "pointer",
          "type": "string"
        }
      ],
      "stateMutability": "view",
      "type": "function",
      "constant": true
    },
    {
      "inputs": [
        {
          "internalType": "address",
          "name": "_ngoAddress",
          "type": "address"
        }
      ],
      "name": "whitelistNgo",
      "outputs": [],
      "stateMutability": "nonpayable",
      "type": "function"
    },
    {
      "inputs": [
        {
          "internalType": "uint256",
          "name": "_donation",
          "type": "uint256"
        },
        {
          "internalType": "string",
          "name": "_pointer",
          "type": "string"
        }
      ],
      "name": "createContract",
      "outputs": [],
      "stateMutability": "nonpayable",
      "type": "function"
    },
    {
      "inputs": [
        {
          "internalType": "uint256",
          "name": "_projectId",
          "type": "uint256"
        }
      ],
      "name": "donate",
      "outputs": [],
      "stateMutability": "payable",
      "type": "function",
      "payable": true
    },
    {
      "inputs": [],
      "name": "getContracts",
      "outputs": [
        {
          "components": [
            {
              "internalType": "uint256",
              "name": "projectID",
              "type": "uint256"
            },
            {
              "internalType": "address",
              "name": "ngoAddress",
              "type": "address"
            },
            {
              "internalType": "address",
              "name": "donorAddress",
              "type": "address"
            },
            {
              "internalType": "uint256",
              "name": "donation",
              "type": "uint256"
            },
            {
              "internalType": "string",
              "name": "pointer",
              "type": "string"
            }
          ],
          "internalType": "struct ABO.abo_contract[]",
          "name": "",
          "type": "tuple[]"
        }
      ],
      "stateMutability": "view",
      "type": "function",
      "constant": true
    },
    {
      "inputs": [],
      "name": "getNextProjectId",
      "outputs": [
        {
          "internalType": "uint256",
          "name": "",
          "type": "uint256"
        }
      ],
      "stateMutability": "view",
      "type": "function",
      "constant": true
    }
  ],
  "bytecode": "0x60806040527386d15b422d924d9115986dd7a87ee794caf2cbaf6000806101000a81548173ffffffffffffffffffffffffffffffffffffffff021916908373ffffffffffffffffffffffffffffffffffffffff160217905550600060035534801561006957600080fd5b506110c7806100796000396000f3fe6080604052600436106100865760003560e01c8063a1263d8f11610059578063a1263d8f1461015d578063bc92088614610188578063c3a2a93a146101b1578063e935b7b1146101dc578063f14faf6f1461020757610086565b806306c88c2b1461008b57806316071018146100b657806378d796d6146100f75780639e71ff6014610134575b600080fd5b34801561009757600080fd5b506100a0610223565b6040516100ad9190610d1b565b60405180910390f35b3480156100c257600080fd5b506100dd60048036038101906100d89190610a7e565b61022d565b6040516100ee959493929190610d36565b60405180910390f35b34801561010357600080fd5b5061011e60048036038101906101199190610a51565b61032b565b60405161012b9190610d00565b60405180910390f35b34801561014057600080fd5b5061015b60048036038101906101569190610a51565b61034b565b005b34801561016957600080fd5b506101726103fd565b60405161017f9190610cc3565b60405180910390f35b34801561019457600080fd5b506101af60048036038101906101aa9190610aab565b610421565b005b3480156101bd57600080fd5b506101c66105c0565b6040516101d39190610cde565b60405180910390f35b3480156101e857600080fd5b506101f16107d2565b6040516101fe9190610d1b565b60405180910390f35b610221600480360381019061021c9190610a7e565b6107d8565b005b6000600354905090565b60026020528060005260406000206000915090508060000154908060010160009054906101000a900473ffffffffffffffffffffffffffffffffffffffff16908060020160009054906101000a900473ffffffffffffffffffffffffffffffffffffffff16908060030154908060040180546102a890610ed6565b80601f01602080910402602001604051908101604052809291908181526020018280546102d490610ed6565b80156103215780601f106102f657610100808354040283529160200191610321565b820191906000526020600020905b81548152906001019060200180831161030457829003601f168201915b5050505050905085565b60016020528060005260406000206000915054906101000a900460ff1681565b60008054906101000a900473ffffffffffffffffffffffffffffffffffffffff1673ffffffffffffffffffffffffffffffffffffffff163373ffffffffffffffffffffffffffffffffffffffff16146103a357600080fd5b60018060008373ffffffffffffffffffffffffffffffffffffffff1673ffffffffffffffffffffffffffffffffffffffff16815260200190815260200160002060006101000a81548160ff02191690831515021790555050565b60008054906101000a900473ffffffffffffffffffffffffffffffffffffffff1681565b600160003373ffffffffffffffffffffffffffffffffffffffff1673ffffffffffffffffffffffffffffffffffffffff16815260200190815260200160002060009054906101000a900460ff1661047757600080fd5b60006003600081548092919061048c90610f39565b9190505590506040518060a001604052808281526020013373ffffffffffffffffffffffffffffffffffffffff168152602001600073ffffffffffffffffffffffffffffffffffffffff16815260200184815260200183815250600260008381526020019081526020016000206000820151816000015560208201518160010160006101000a81548173ffffffffffffffffffffffffffffffffffffffff021916908373ffffffffffffffffffffffffffffffffffffffff16021790555060408201518160020160006101000a81548173ffffffffffffffffffffffffffffffffffffffff021916908373ffffffffffffffffffffffffffffffffffffffff1602179055506060820151816003015560808201518160040190805190602001906105b79291906108b9565b50905050505050565b6060600060035467ffffffffffffffff8111156105e0576105df61100f565b5b60405190808252806020026020018201604052801561061957816020015b61060661093f565b8152602001906001900390816105fe5790505b50905060005b6003548110156107ca57600260008281526020019081526020016000206040518060a0016040529081600082015481526020016001820160009054906101000a900473ffffffffffffffffffffffffffffffffffffffff1673ffffffffffffffffffffffffffffffffffffffff1673ffffffffffffffffffffffffffffffffffffffff1681526020016002820160009054906101000a900473ffffffffffffffffffffffffffffffffffffffff1673ffffffffffffffffffffffffffffffffffffffff1673ffffffffffffffffffffffffffffffffffffffff1681526020016003820154815260200160048201805461071790610ed6565b80601f016020809104026020016040519081016040528092919081815260200182805461074390610ed6565b80156107905780601f1061076557610100808354040283529160200191610790565b820191906000526020600020905b81548152906001019060200180831161077357829003601f168201915b5050505050815250508282815181106107ac576107ab610fe0565b5b602002602001018190525080806107c290610f39565b91505061061f565b508091505090565b60035481565b60006002600083815260200190815260200160002060010160009054906101000a900473ffffffffffffffffffffffffffffffffffffffff1690508073ffffffffffffffffffffffffffffffffffffffff166108fc349081150290604051600060405180830381858888f19350505050158015610859573d6000803e3d6000fd5b506000600260008481526020019081526020016000209050338160020160006101000a81548173ffffffffffffffffffffffffffffffffffffffff021916908373ffffffffffffffffffffffffffffffffffffffff160217905550505050565b8280546108c590610ed6565b90600052602060002090601f0160209004810192826108e7576000855561092e565b82601f1061090057805160ff191683800117855561092e565b8280016001018555821561092e579182015b8281111561092d578251825591602001919060010190610912565b5b50905061093b919061099a565b5090565b6040518060a0016040528060008152602001600073ffffffffffffffffffffffffffffffffffffffff168152602001600073ffffffffffffffffffffffffffffffffffffffff16815260200160008152602001606081525090565b5b808211156109b357600081600090555060010161099b565b5090565b60006109ca6109c584610db5565b610d90565b9050828152602081018484840111156109e6576109e5611043565b5b6109f1848285610e94565b509392505050565b600081359050610a0881611063565b92915050565b600082601f830112610a2357610a2261103e565b5b8135610a338482602086016109b7565b91505092915050565b600081359050610a4b8161107a565b92915050565b600060208284031215610a6757610a6661104d565b5b6000610a75848285016109f9565b91505092915050565b600060208284031215610a9457610a9361104d565b5b6000610aa284828501610a3c565b91505092915050565b60008060408385031215610ac257610ac161104d565b5b6000610ad085828601610a3c565b925050602083013567ffffffffffffffff811115610af157610af0611048565b5b610afd85828601610a0e565b9150509250929050565b6000610b138383610c2f565b905092915050565b610b2481610e4c565b82525050565b610b3381610e4c565b82525050565b6000610b4482610df6565b610b4e8185610e19565b935083602082028501610b6085610de6565b8060005b85811015610b9c5784840389528151610b7d8582610b07565b9450610b8883610e0c565b925060208a01995050600181019050610b64565b50829750879550505050505092915050565b610bb781610e5e565b82525050565b6000610bc882610e01565b610bd28185610e2a565b9350610be2818560208601610ea3565b610beb81611052565b840191505092915050565b6000610c0182610e01565b610c0b8185610e3b565b9350610c1b818560208601610ea3565b610c2481611052565b840191505092915050565b600060a083016000830151610c476000860182610ca5565b506020830151610c5a6020860182610b1b565b506040830151610c6d6040860182610b1b565b506060830151610c806060860182610ca5565b5060808301518482036080860152610c988282610bbd565b9150508091505092915050565b610cae81610e8a565b82525050565b610cbd81610e8a565b82525050565b6000602082019050610cd86000830184610b2a565b92915050565b60006020820190508181036000830152610cf88184610b39565b905092915050565b6000602082019050610d156000830184610bae565b92915050565b6000602082019050610d306000830184610cb4565b92915050565b600060a082019050610d4b6000830188610cb4565b610d586020830187610b2a565b610d656040830186610b2a565b610d726060830185610cb4565b8181036080830152610d848184610bf6565b90509695505050505050565b6000610d9a610dab565b9050610da68282610f08565b919050565b6000604051905090565b600067ffffffffffffffff821115610dd057610dcf61100f565b5b610dd982611052565b9050602081019050919050565b6000819050602082019050919050565b600081519050919050565b600081519050919050565b6000602082019050919050565b600082825260208201905092915050565b600082825260208201905092915050565b600082825260208201905092915050565b6000610e5782610e6a565b9050919050565b60008115159050919050565b600073ffffffffffffffffffffffffffffffffffffffff82169050919050565b6000819050919050565b82818337600083830152505050565b60005b83811015610ec1578082015181840152602081019050610ea6565b83811115610ed0576000848401525b50505050565b60006002820490506001821680610eee57607f821691505b60208210811415610f0257610f01610fb1565b5b50919050565b610f1182611052565b810181811067ffffffffffffffff82111715610f3057610f2f61100f565b5b80604052505050565b6000610f4482610e8a565b91507fffffffffffffffffffffffffffffffffffffffffffffffffffffffffffffffff821415610f7757610f76610f82565b5b600182019050919050565b7f4e487b7100000000000000000000000000000000000000000000000000000000600052601160045260246000fd5b7f4e487b7100000000000000000000000000000000000000000000000000000000600052602260045260246000fd5b7f4e487b7100000000000000000000000000000000000000000000000000000000600052603260045260246000fd5b7f4e487b7100000000000000000000000000000000000000000000000000000000600052604160045260246000fd5b600080fd5b600080fd5b600080fd5b600080fd5b6000601f19601f8301169050919050565b61106c81610e4c565b811461107757600080fd5b50565b61108381610e8a565b811461108e57600080fd5b5056fea2646970667358221220965acf460b8761f7c717f288efc9cf26fb819947868fed2508a2eb9e767da15864736f6c63430008070033",
  "immutableReferences": {},
  "source": "// SPDX-License-Identifier: GPL-3.0\n// Solidity program to demonstrate\n// how to create a contract\npragma solidity >=0.7.0 <0.9.0;\npragma abicoder v2;\n// Creating a contract\ncontract ABO {\t\n    // Declaring variable\n    address public betterOcean = 0x86D15B422D924D9115986Dd7A87ee794CAF2cbaF;\n    mapping (address => bool) public ngoWallets;\n    mapping (uint => abo_contract) public projectIdToContract;\n    uint public nextProjectId = 0; //needs to be private later\n\n\n    struct abo_contract{\n        uint projectID;\n        address ngoAddress;\n        address donorAddress;\n        uint donation;\n        string pointer;\n        //bool paid;\n        //string label;\n    }\n\n    // abo_contract[] public abo_contracts;\n\n    modifier isBetterOcean() {\n        require(msg.sender == betterOcean);\n        _;\n    }\n\n    modifier isValidNgo() {\n        require(ngoWallets[msg.sender]);\n        _;\n    }\n\n    function whitelistNgo(address _ngoAddress) isBetterOcean public {\n        ngoWallets[_ngoAddress] = true;\n    }\n\n    function createContract(uint _donation, string memory _pointer) isValidNgo public {\n        uint projectId = nextProjectId++;\n        projectIdToContract[projectId] = abo_contract(projectId, msg.sender, address(0), _donation, _pointer);\n    }\n\n    function donate(uint _projectId) public payable{\n        //require(msg.value == projectIdToContract[_projectId].donation);\n        address ngoAddress  = projectIdToContract[_projectId].ngoAddress;\n        // make a payment\n        payable(ngoAddress).transfer(msg.value);\n        // projectIdToContract[_projectId].donorID = msg.sender;\n        abo_contract storage myContract = projectIdToContract[_projectId];\n        myContract.donorAddress = msg.sender;\n\n    } \n\n\n\n\n\n\n\n\n    function getContracts() public view returns (abo_contract[] memory) {\n        abo_contract [] memory memoryArray = new abo_contract[](nextProjectId);\n        for(uint i = 0; i < nextProjectId; i++) {\n            memoryArray[i] = projectIdToContract[i];\n        }\n        return memoryArray;\n    }\n\n    // function getContract(uint _index) public view returns (abo_contract memory) {\n    //     return abo_contracts[_index];\n    // }\n\n    function getNextProjectId() public view returns (uint) {\n        return nextProjectId;\n    }\n\n    // function check_whitelistNgo(address _ngoAddress) isBetterOcean public returns (bool){\n    //     return ngoWallets[_ngoAddress];\n    // }\n\n    // function ngo_create(string memory _projectID, address _ngoID, string memory _donorID, string memory _contract_text, string memory _label, uint _contract_value, bool _contract_valid, bool _contract_finished) public {\n    //     abo_contracts.push(abo_contract(_projectID, _ngoID, _donorID, _contract_text, _label, _contract_value, _contract_valid, _contract_finished));\n    // }\n\n    // function donor_accept(string memory _projectID, address _ngoID, string memory _donorID, string memory _contract_text, string memory _label, uint _contract_value, bool _contract_valid, bool _contract_finished) public payable{\n    //     require(msg.value >= 10 ether);\n\n    //     abo_contracts.push(abo_contract(_projectID, _ngoID, _donorID, _contract_text, _label, _contract_value, _contract_valid, _contract_finished)); //needs to modify not create new\n    //     // actua; payment\n    // }\n\n    // function allcontracts() public view returns(abo_contract[] memory) {\n    //     return abo_contracts;\n    // }\n\n    // function getUser(string memory _projectID) public view returns (string memory) {\n    //     return abo_contracts[_projectID].projectID;\n    // }\n//     function transferC() external payable{\n//         }\n    \n//     function transfer(address payable _receiver) external {\n//         _receiver.transfer(10 ether);\n//   }\n}",
  "sourcePath": "/Users/kiliansprenkamp/Desktop/OneDrive - Universitat Zurich UZH/uzh/BlockchainSchool/truffle_project/abetterocean/contracts/ABO.sol",
  "compiler": {
    "name": "solc",
    "version": "0.8.7+commit.e28d00a7.Emscripten.clang"
  },
  "schemaVersion": "3.4.4",
  "updatedAt": "2022-01-27T16:52:43.125Z",
  "networkType": "ethereum",
  "devdoc": {
    "kind": "dev",
    "methods": {},
    "version": 1
  },
  "userdoc": {
    "kind": "user",
    "methods": {},
    "version": 1
  }
}