{
  "contractName": "ABO",
  "abi": [
    {
      "inputs": [],
      "name": "aboFeeInPercent",
      "outputs": [
        {
          "internalType": "uint256",
          "name": "",
          "type": "uint256"
        }
      ],
      "stateMutability": "view",
      "type": "function",
      "constant": true
    },
    {
      "inputs": [],
      "name": "betterOcean",
      "outputs": [
        {
          "internalType": "address",
          "name": "",
          "type": "address"
        }
      ],
      "stateMutability": "view",
      "type": "function",
      "constant": true
    },
    {
      "inputs": [],
      "name": "nextProjectId",
      "outputs": [
        {
          "internalType": "uint256",
          "name": "",
          "type": "uint256"
        }
      ],
      "stateMutability": "view",
      "type": "function",
      "constant": true
    },
    {
      "inputs": [
        {
          "internalType": "address",
          "name": "",
          "type": "address"
        }
      ],
      "name": "ngoWallets",
      "outputs": [
        {
          "internalType": "bool",
          "name": "",
          "type": "bool"
        }
      ],
      "stateMutability": "view",
      "type": "function",
      "constant": true
    },
    {
      "inputs": [
        {
          "internalType": "uint256",
          "name": "",
          "type": "uint256"
        }
      ],
      "name": "projectIdToContract",
      "outputs": [
        {
          "internalType": "uint256",
          "name": "projectID",
          "type": "uint256"
        },
        {
          "internalType": "address",
          "name": "ngoAddress",
          "type": "address"
        },
        {
          "internalType": "address",
          "name": "donorAddress",
          "type": "address"
        },
        {
          "internalType": "uint256",
          "name": "donation",
          "type": "uint256"
        },
        {
          "internalType": "string",
          "name": "pointer",
          "type": "string"
        }
      ],
      "stateMutability": "view",
      "type": "function",
      "constant": true
    },
    {
      "inputs": [
        {
          "internalType": "address",
          "name": "_ngoAddress",
          "type": "address"
        }
      ],
      "name": "whitelistNgo",
      "outputs": [],
      "stateMutability": "nonpayable",
      "type": "function"
    },
    {
      "inputs": [
        {
          "internalType": "uint256",
          "name": "_donation",
          "type": "uint256"
        },
        {
          "internalType": "string",
          "name": "_pointer",
          "type": "string"
        }
      ],
      "name": "createContract",
      "outputs": [],
      "stateMutability": "nonpayable",
      "type": "function"
    },
    {
      "inputs": [
        {
          "internalType": "uint256",
          "name": "_projectId",
          "type": "uint256"
        }
      ],
      "name": "donate",
      "outputs": [],
      "stateMutability": "payable",
      "type": "function",
      "payable": true
    },
    {
      "inputs": [],
      "name": "getContracts",
      "outputs": [
        {
          "components": [
            {
              "internalType": "uint256",
              "name": "projectID",
              "type": "uint256"
            },
            {
              "internalType": "address",
              "name": "ngoAddress",
              "type": "address"
            },
            {
              "internalType": "address",
              "name": "donorAddress",
              "type": "address"
            },
            {
              "internalType": "uint256",
              "name": "donation",
              "type": "uint256"
            },
            {
              "internalType": "string",
              "name": "pointer",
              "type": "string"
            }
          ],
          "internalType": "struct ABO.abo_contract[]",
          "name": "",
          "type": "tuple[]"
        }
      ],
      "stateMutability": "view",
      "type": "function",
      "constant": true
    },
    {
      "inputs": [],
      "name": "getNextProjectId",
      "outputs": [
        {
          "internalType": "uint256",
          "name": "",
          "type": "uint256"
        }
      ],
      "stateMutability": "view",
      "type": "function",
      "constant": true
    }
  ],
  "bytecode": "0x60806040527386d15b422d924d9115986dd7a87ee794caf2cbaf6000806101000a81548173ffffffffffffffffffffffffffffffffffffffff021916908373ffffffffffffffffffffffffffffffffffffffff1602179055506000600355600260045534801561006e57600080fd5b506112bd8061007e6000396000f3fe6080604052600436106100915760003560e01c8063a2b78ef011610059578063a2b78ef014610193578063bc920886146101be578063c3a2a93a146101e7578063e935b7b114610212578063f14faf6f1461023d57610091565b806306c88c2b1461009657806316071018146100c157806378d796d6146101025780639e71ff601461013f578063a1263d8f14610168575b600080fd5b3480156100a257600080fd5b506100ab610259565b6040516100b89190610e23565b60405180910390f35b3480156100cd57600080fd5b506100e860048036038101906100e39190610b86565b610263565b6040516100f9959493929190610e3e565b60405180910390f35b34801561010e57600080fd5b5061012960048036038101906101249190610b59565b610361565b6040516101369190610e08565b60405180910390f35b34801561014b57600080fd5b5061016660048036038101906101619190610b59565b610381565b005b34801561017457600080fd5b5061017d610433565b60405161018a9190610dcb565b60405180910390f35b34801561019f57600080fd5b506101a8610457565b6040516101b59190610e23565b60405180910390f35b3480156101ca57600080fd5b506101e560048036038101906101e09190610bb3565b61045d565b005b3480156101f357600080fd5b506101fc6105fc565b6040516102099190610de6565b60405180910390f35b34801561021e57600080fd5b5061022761080e565b6040516102349190610e23565b60405180910390f35b61025760048036038101906102529190610b86565b610814565b005b6000600354905090565b60026020528060005260406000206000915090508060000154908060010160009054906101000a900473ffffffffffffffffffffffffffffffffffffffff16908060020160009054906101000a900473ffffffffffffffffffffffffffffffffffffffff16908060030154908060040180546102de9061109d565b80601f016020809104026020016040519081016040528092919081815260200182805461030a9061109d565b80156103575780601f1061032c57610100808354040283529160200191610357565b820191906000526020600020905b81548152906001019060200180831161033a57829003601f168201915b5050505050905085565b60016020528060005260406000206000915054906101000a900460ff1681565b60008054906101000a900473ffffffffffffffffffffffffffffffffffffffff1673ffffffffffffffffffffffffffffffffffffffff163373ffffffffffffffffffffffffffffffffffffffff16146103d957600080fd5b60018060008373ffffffffffffffffffffffffffffffffffffffff1673ffffffffffffffffffffffffffffffffffffffff16815260200190815260200160002060006101000a81548160ff02191690831515021790555050565b60008054906101000a900473ffffffffffffffffffffffffffffffffffffffff1681565b60045481565b600160003373ffffffffffffffffffffffffffffffffffffffff1673ffffffffffffffffffffffffffffffffffffffff16815260200190815260200160002060009054906101000a900460ff166104b357600080fd5b6000600360008154809291906104c890611100565b9190505590506040518060a001604052808281526020013373ffffffffffffffffffffffffffffffffffffffff168152602001600073ffffffffffffffffffffffffffffffffffffffff16815260200184815260200183815250600260008381526020019081526020016000206000820151816000015560208201518160010160006101000a81548173ffffffffffffffffffffffffffffffffffffffff021916908373ffffffffffffffffffffffffffffffffffffffff16021790555060408201518160020160006101000a81548173ffffffffffffffffffffffffffffffffffffffff021916908373ffffffffffffffffffffffffffffffffffffffff1602179055506060820151816003015560808201518160040190805190602001906105f39291906109c1565b50905050505050565b6060600060035467ffffffffffffffff81111561061c5761061b611205565b5b60405190808252806020026020018201604052801561065557816020015b610642610a47565b81526020019060019003908161063a5790505b50905060005b60035481101561080657600260008281526020019081526020016000206040518060a0016040529081600082015481526020016001820160009054906101000a900473ffffffffffffffffffffffffffffffffffffffff1673ffffffffffffffffffffffffffffffffffffffff1673ffffffffffffffffffffffffffffffffffffffff1681526020016002820160009054906101000a900473ffffffffffffffffffffffffffffffffffffffff1673ffffffffffffffffffffffffffffffffffffffff1673ffffffffffffffffffffffffffffffffffffffff168152602001600382015481526020016004820180546107539061109d565b80601f016020809104026020016040519081016040528092919081815260200182805461077f9061109d565b80156107cc5780601f106107a1576101008083540402835291602001916107cc565b820191906000526020600020905b8154815290600101906020018083116107af57829003601f168201915b5050505050815250508282815181106107e8576107e76111d6565b5b602002602001018190525080806107fe90611100565b91505061065b565b508091505090565b60035481565b670de0b6b3a7640000600260008381526020019081526020016000206003015461083e9190610f85565b341461084957600080fd5b600060646004543461085b9190610f85565b6108659190610f54565b9050600081346108759190610fdf565b905060006002600085815260200190815260200160002060010160009054906101000a900473ffffffffffffffffffffffffffffffffffffffff1690508073ffffffffffffffffffffffffffffffffffffffff166108fc839081150290604051600060405180830381858888f193505050501580156108f8573d6000803e3d6000fd5b5060008054906101000a900473ffffffffffffffffffffffffffffffffffffffff1673ffffffffffffffffffffffffffffffffffffffff166108fc849081150290604051600060405180830381858888f1935050505015801561095f573d6000803e3d6000fd5b506000600260008681526020019081526020016000209050338160020160006101000a81548173ffffffffffffffffffffffffffffffffffffffff021916908373ffffffffffffffffffffffffffffffffffffffff1602179055505050505050565b8280546109cd9061109d565b90600052602060002090601f0160209004810192826109ef5760008555610a36565b82601f10610a0857805160ff1916838001178555610a36565b82800160010185558215610a36579182015b82811115610a35578251825591602001919060010190610a1a565b5b509050610a439190610aa2565b5090565b6040518060a0016040528060008152602001600073ffffffffffffffffffffffffffffffffffffffff168152602001600073ffffffffffffffffffffffffffffffffffffffff16815260200160008152602001606081525090565b5b80821115610abb576000816000905550600101610aa3565b5090565b6000610ad2610acd84610ebd565b610e98565b905082815260208101848484011115610aee57610aed611239565b5b610af984828561105b565b509392505050565b600081359050610b1081611259565b92915050565b600082601f830112610b2b57610b2a611234565b5b8135610b3b848260208601610abf565b91505092915050565b600081359050610b5381611270565b92915050565b600060208284031215610b6f57610b6e611243565b5b6000610b7d84828501610b01565b91505092915050565b600060208284031215610b9c57610b9b611243565b5b6000610baa84828501610b44565b91505092915050565b60008060408385031215610bca57610bc9611243565b5b6000610bd885828601610b44565b925050602083013567ffffffffffffffff811115610bf957610bf861123e565b5b610c0585828601610b16565b9150509250929050565b6000610c1b8383610d37565b905092915050565b610c2c81611013565b82525050565b610c3b81611013565b82525050565b6000610c4c82610efe565b610c568185610f21565b935083602082028501610c6885610eee565b8060005b85811015610ca45784840389528151610c858582610c0f565b9450610c9083610f14565b925060208a01995050600181019050610c6c565b50829750879550505050505092915050565b610cbf81611025565b82525050565b6000610cd082610f09565b610cda8185610f32565b9350610cea81856020860161106a565b610cf381611248565b840191505092915050565b6000610d0982610f09565b610d138185610f43565b9350610d2381856020860161106a565b610d2c81611248565b840191505092915050565b600060a083016000830151610d4f6000860182610dad565b506020830151610d626020860182610c23565b506040830151610d756040860182610c23565b506060830151610d886060860182610dad565b5060808301518482036080860152610da08282610cc5565b9150508091505092915050565b610db681611051565b82525050565b610dc581611051565b82525050565b6000602082019050610de06000830184610c32565b92915050565b60006020820190508181036000830152610e008184610c41565b905092915050565b6000602082019050610e1d6000830184610cb6565b92915050565b6000602082019050610e386000830184610dbc565b92915050565b600060a082019050610e536000830188610dbc565b610e606020830187610c32565b610e6d6040830186610c32565b610e7a6060830185610dbc565b8181036080830152610e8c8184610cfe565b90509695505050505050565b6000610ea2610eb3565b9050610eae82826110cf565b919050565b6000604051905090565b600067ffffffffffffffff821115610ed857610ed7611205565b5b610ee182611248565b9050602081019050919050565b6000819050602082019050919050565b600081519050919050565b600081519050919050565b6000602082019050919050565b600082825260208201905092915050565b600082825260208201905092915050565b600082825260208201905092915050565b6000610f5f82611051565b9150610f6a83611051565b925082610f7a57610f79611178565b5b828204905092915050565b6000610f9082611051565b9150610f9b83611051565b9250817fffffffffffffffffffffffffffffffffffffffffffffffffffffffffffffffff0483118215151615610fd457610fd3611149565b5b828202905092915050565b6000610fea82611051565b9150610ff583611051565b92508282101561100857611007611149565b5b828203905092915050565b600061101e82611031565b9050919050565b60008115159050919050565b600073ffffffffffffffffffffffffffffffffffffffff82169050919050565b6000819050919050565b82818337600083830152505050565b60005b8381101561108857808201518184015260208101905061106d565b83811115611097576000848401525b50505050565b600060028204905060018216806110b557607f821691505b602082108114156110c9576110c86111a7565b5b50919050565b6110d882611248565b810181811067ffffffffffffffff821117156110f7576110f6611205565b5b80604052505050565b600061110b82611051565b91507fffffffffffffffffffffffffffffffffffffffffffffffffffffffffffffffff82141561113e5761113d611149565b5b600182019050919050565b7f4e487b7100000000000000000000000000000000000000000000000000000000600052601160045260246000fd5b7f4e487b7100000000000000000000000000000000000000000000000000000000600052601260045260246000fd5b7f4e487b7100000000000000000000000000000000000000000000000000000000600052602260045260246000fd5b7f4e487b7100000000000000000000000000000000000000000000000000000000600052603260045260246000fd5b7f4e487b7100000000000000000000000000000000000000000000000000000000600052604160045260246000fd5b600080fd5b600080fd5b600080fd5b600080fd5b6000601f19601f8301169050919050565b61126281611013565b811461126d57600080fd5b50565b61127981611051565b811461128457600080fd5b5056fea2646970667358221220fff001aa02ede5ed171454c76ed168ba62bec4e5e3db0f93a12465005b4b184b64736f6c63430008070033",
  "immutableReferences": {},
  "source": "// SPDX-License-Identifier: GPL-3.0\n// Solidity program to demonstrate\n// how to create a contract\npragma solidity >=0.7.0 <0.9.0;\npragma abicoder v2;\n// Creating a contract\ncontract ABO {\t\n    // Declaring variable\n    address public betterOcean = 0x86D15B422D924D9115986Dd7A87ee794CAF2cbaF;\n    mapping (address => bool) public ngoWallets;\n    mapping (uint => abo_contract) public projectIdToContract;\n    uint public nextProjectId = 0;\n    uint public aboFeeInPercent = 2;\n\n\n    struct abo_contract{\n        uint projectID;\n        address ngoAddress;\n        address donorAddress;\n        uint donation;\n        string pointer;\n        //bool paid;\n        //string label;\n    }\n\n    // abo_contract[] public abo_contracts;\n\n    modifier isBetterOcean() {\n        require(msg.sender == betterOcean);\n        _;\n    }\n\n    modifier isValidNgo() {\n        require(ngoWallets[msg.sender]);\n        _;\n    }\n\n    function whitelistNgo(address _ngoAddress) isBetterOcean public {\n        ngoWallets[_ngoAddress] = true;\n    }\n\n    function createContract(uint _donation, string memory _pointer) isValidNgo public {\n        uint projectId = nextProjectId++;\n        projectIdToContract[projectId] = abo_contract(projectId, msg.sender, address(0), _donation, _pointer);\n    }\n\n    function donate(uint _projectId) public payable{\n        require(msg.value == projectIdToContract[_projectId].donation * (1 ether));        \n        uint aboFee = msg.value * aboFeeInPercent / 100; \n        uint ngoAmount = msg.value - aboFee; \n        // make a payment to NGO\n        address ngoAddress  = projectIdToContract[_projectId].ngoAddress;\n        payable(ngoAddress).transfer(ngoAmount);\n        // make a payment ABO\n        payable(betterOcean).transfer(aboFee);\n        abo_contract storage myContract = projectIdToContract[_projectId];\n        myContract.donorAddress = msg.sender;\n    } \n\n\n    function getContracts() public view returns (abo_contract[] memory) {\n        abo_contract [] memory memoryArray = new abo_contract[](nextProjectId);\n        for(uint i = 0; i < nextProjectId; i++) {\n            memoryArray[i] = projectIdToContract[i];\n        }\n        return memoryArray;\n    }\n\n    // function getContract(uint _index) public view returns (abo_contract memory) {\n    //     return abo_contracts[_index];\n    // }\n\n    function getNextProjectId() public view returns (uint) {\n        return nextProjectId;\n    }\n\n    // function check_whitelistNgo(address _ngoAddress) isBetterOcean public returns (bool){\n    //     return ngoWallets[_ngoAddress];\n    // }\n\n    // function ngo_create(string memory _projectID, address _ngoID, string memory _donorID, string memory _contract_text, string memory _label, uint _contract_value, bool _contract_valid, bool _contract_finished) public {\n    //     abo_contracts.push(abo_contract(_projectID, _ngoID, _donorID, _contract_text, _label, _contract_value, _contract_valid, _contract_finished));\n    // }\n\n    // function donor_accept(string memory _projectID, address _ngoID, string memory _donorID, string memory _contract_text, string memory _label, uint _contract_value, bool _contract_valid, bool _contract_finished) public payable{\n    //     require(msg.value >= 10 ether);\n\n    //     abo_contracts.push(abo_contract(_projectID, _ngoID, _donorID, _contract_text, _label, _contract_value, _contract_valid, _contract_finished)); //needs to modify not create new\n    //     // actua; payment\n    // }\n\n    // function allcontracts() public view returns(abo_contract[] memory) {\n    //     return abo_contracts;\n    // }\n\n    // function getUser(string memory _projectID) public view returns (string memory) {\n    //     return abo_contracts[_projectID].projectID;\n    // }\n//     function transferC() external payable{\n//         }\n    \n//     function transfer(address payable _receiver) external {\n//         _receiver.transfer(10 ether);\n//   }\n}",
  "sourcePath": "/Users/kiliansprenkamp/Desktop/OneDrive - Universitat Zurich UZH/uzh/BlockchainSchool/truffle_project/abetterocean/contracts/ABO.sol",
  "compiler": {
    "name": "solc",
    "version": "0.8.7+commit.e28d00a7.Emscripten.clang"
  },
  "schemaVersion": "3.4.4",
  "updatedAt": "2022-01-27T19:19:44.547Z",
  "networkType": "ethereum",
  "devdoc": {
    "kind": "dev",
    "methods": {},
    "version": 1
  },
  "userdoc": {
    "kind": "user",
    "methods": {},
    "version": 1
  }
}