{
  "contractName": "ABO",
  "abi": [
    {
      "inputs": [
        {
          "internalType": "uint256",
          "name": "",
          "type": "uint256"
        }
      ],
      "name": "abo_contracts",
      "outputs": [
        {
          "internalType": "string",
          "name": "projectID",
          "type": "string"
        },
        {
          "internalType": "address",
          "name": "ngoID_a",
          "type": "address"
        },
        {
          "internalType": "string",
          "name": "ngoID",
          "type": "string"
        },
        {
          "internalType": "string",
          "name": "donorID",
          "type": "string"
        },
        {
          "internalType": "string",
          "name": "contract_text",
          "type": "string"
        },
        {
          "internalType": "string",
          "name": "label",
          "type": "string"
        },
        {
          "internalType": "uint256",
          "name": "contract_value",
          "type": "uint256"
        },
        {
          "internalType": "bool",
          "name": "contract_valid",
          "type": "bool"
        },
        {
          "internalType": "bool",
          "name": "contract_finished",
          "type": "bool"
        }
      ],
      "stateMutability": "view",
      "type": "function",
      "constant": true
    },
    {
      "inputs": [],
      "name": "contract_text",
      "outputs": [
        {
          "internalType": "string",
          "name": "",
          "type": "string"
        }
      ],
      "stateMutability": "view",
      "type": "function",
      "constant": true
    },
    {
      "inputs": [],
      "name": "contract_value",
      "outputs": [
        {
          "internalType": "uint256",
          "name": "",
          "type": "uint256"
        }
      ],
      "stateMutability": "view",
      "type": "function",
      "constant": true
    },
    {
      "inputs": [],
      "name": "donorID",
      "outputs": [
        {
          "internalType": "string",
          "name": "",
          "type": "string"
        }
      ],
      "stateMutability": "view",
      "type": "function",
      "constant": true
    },
    {
      "inputs": [],
      "name": "label",
      "outputs": [
        {
          "internalType": "string",
          "name": "",
          "type": "string"
        }
      ],
      "stateMutability": "view",
      "type": "function",
      "constant": true
    },
    {
      "inputs": [],
      "name": "ngoID",
      "outputs": [
        {
          "internalType": "string",
          "name": "",
          "type": "string"
        }
      ],
      "stateMutability": "view",
      "type": "function",
      "constant": true
    },
    {
      "inputs": [],
      "name": "projectID",
      "outputs": [
        {
          "internalType": "string",
          "name": "",
          "type": "string"
        }
      ],
      "stateMutability": "view",
      "type": "function",
      "constant": true
    },
    {
      "inputs": [
        {
          "internalType": "string",
          "name": "_projectID",
          "type": "string"
        },
        {
          "internalType": "address",
          "name": "_ngoID_a",
          "type": "address"
        },
        {
          "internalType": "string",
          "name": "_ngoID",
          "type": "string"
        },
        {
          "internalType": "string",
          "name": "_donorID",
          "type": "string"
        },
        {
          "internalType": "string",
          "name": "_contract_text",
          "type": "string"
        },
        {
          "internalType": "string",
          "name": "_label",
          "type": "string"
        },
        {
          "internalType": "uint256",
          "name": "_contract_value",
          "type": "uint256"
        },
        {
          "internalType": "bool",
          "name": "_contract_valid",
          "type": "bool"
        },
        {
          "internalType": "bool",
          "name": "_contract_finished",
          "type": "bool"
        }
      ],
      "name": "ngo_create",
      "outputs": [],
      "stateMutability": "nonpayable",
      "type": "function"
    },
    {
      "inputs": [
        {
          "internalType": "string",
          "name": "_projectID",
          "type": "string"
        },
        {
          "internalType": "address",
          "name": "_ngoID_a",
          "type": "address"
        },
        {
          "internalType": "string",
          "name": "_ngoID",
          "type": "string"
        },
        {
          "internalType": "string",
          "name": "_donorID",
          "type": "string"
        },
        {
          "internalType": "string",
          "name": "_contract_text",
          "type": "string"
        },
        {
          "internalType": "string",
          "name": "_label",
          "type": "string"
        },
        {
          "internalType": "uint256",
          "name": "_contract_value",
          "type": "uint256"
        },
        {
          "internalType": "bool",
          "name": "_contract_valid",
          "type": "bool"
        },
        {
          "internalType": "bool",
          "name": "_contract_finished",
          "type": "bool"
        }
      ],
      "name": "donor_accept",
      "outputs": [],
      "stateMutability": "payable",
      "type": "function",
      "payable": true
    },
    {
      "inputs": [],
      "name": "allcontracts",
      "outputs": [
        {
          "components": [
            {
              "internalType": "string",
              "name": "projectID",
              "type": "string"
            },
            {
              "internalType": "address",
              "name": "ngoID_a",
              "type": "address"
            },
            {
              "internalType": "string",
              "name": "ngoID",
              "type": "string"
            },
            {
              "internalType": "string",
              "name": "donorID",
              "type": "string"
            },
            {
              "internalType": "string",
              "name": "contract_text",
              "type": "string"
            },
            {
              "internalType": "string",
              "name": "label",
              "type": "string"
            },
            {
              "internalType": "uint256",
              "name": "contract_value",
              "type": "uint256"
            },
            {
              "internalType": "bool",
              "name": "contract_valid",
              "type": "bool"
            },
            {
              "internalType": "bool",
              "name": "contract_finished",
              "type": "bool"
            }
          ],
          "internalType": "struct ABO.abo_contract[]",
          "name": "",
          "type": "tuple[]"
        }
      ],
      "stateMutability": "view",
      "type": "function",
      "constant": true
    },
    {
      "inputs": [
        {
          "internalType": "address payable",
          "name": "_receiver",
          "type": "address"
        }
      ],
      "name": "transfer",
      "outputs": [],
      "stateMutability": "nonpayable",
      "type": "function"
    }
  ],
  "bytecode": "0x608060405234801561001057600080fd5b5061195a806100206000396000f3fe60806040526004361061009c5760003560e01c80639c30ea51116100645780639c30ea5114610167578063aefef5f214610192578063cb4774c4146101d7578063d7edd5bb14610202578063e354d5171461022b578063ee75a697146102565761009c565b80631a695230146100a15780631c2b6e68146100ca57806324fd97a8146100f5578063276a1c8c146101205780637ba3c6931461014b575b600080fd5b3480156100ad57600080fd5b506100c860048036038101906100c39190611195565b610281565b005b3480156100d657600080fd5b506100df6102d3565b6040516100ec919061159d565b60405180910390f35b34801561010157600080fd5b5061010a610361565b604051610117919061159d565b60405180910390f35b34801561012c57600080fd5b506101356103ef565b604051610142919061159d565b60405180910390f35b610165600480360381019061016091906111c2565b61047d565b005b34801561017357600080fd5b5061017c610647565b604051610189919061159d565b60405180910390f35b34801561019e57600080fd5b506101b960048036038101906101b49190611318565b6106d5565b6040516101ce999897969594939291906115bf565b60405180910390f35b3480156101e357600080fd5b506101ec610a15565b6040516101f9919061159d565b60405180910390f35b34801561020e57600080fd5b50610229600480360381019061022491906111c2565b610aa3565b005b34801561023757600080fd5b50610240610c58565b60405161024d919061166f565b60405180910390f35b34801561026257600080fd5b5061026b610c5e565b604051610278919061157b565b60405180910390f35b8073ffffffffffffffffffffffffffffffffffffffff166108fc678ac7230489e800009081150290604051600060405180830381858888f193505050501580156102cf573d6000803e3d6000fd5b5050565b600180546102e0906117e2565b80601f016020809104026020016040519081016040528092919081815260200182805461030c906117e2565b80156103595780601f1061032e57610100808354040283529160200191610359565b820191906000526020600020905b81548152906001019060200180831161033c57829003601f168201915b505050505081565b6002805461036e906117e2565b80601f016020809104026020016040519081016040528092919081815260200182805461039a906117e2565b80156103e75780601f106103bc576101008083540402835291602001916103e7565b820191906000526020600020905b8154815290600101906020018083116103ca57829003601f168201915b505050505081565b600380546103fc906117e2565b80601f0160208091040260200160405190810160405280929190818152602001828054610428906117e2565b80156104755780601f1061044a57610100808354040283529160200191610475565b820191906000526020600020905b81548152906001019060200180831161045857829003601f168201915b505050505081565b678ac7230489e8000034101561049257600080fd5b60066040518061012001604052808b81526020018a73ffffffffffffffffffffffffffffffffffffffff16815260200189815260200188815260200187815260200186815260200185815260200184151581526020018315158152509080600181540180825580915050600190039060005260206000209060080201600090919091909150600082015181600001908051906020019061053392919061102e565b5060208201518160010160006101000a81548173ffffffffffffffffffffffffffffffffffffffff021916908373ffffffffffffffffffffffffffffffffffffffff160217905550604082015181600201908051906020019061059792919061102e565b5060608201518160030190805190602001906105b492919061102e565b5060808201518160040190805190602001906105d192919061102e565b5060a08201518160050190805190602001906105ee92919061102e565b5060c0820151816006015560e08201518160070160006101000a81548160ff0219169083151502179055506101008201518160070160016101000a81548160ff0219169083151502179055505050505050505050505050565b60008054610654906117e2565b80601f0160208091040260200160405190810160405280929190818152602001828054610680906117e2565b80156106cd5780601f106106a2576101008083540402835291602001916106cd565b820191906000526020600020905b8154815290600101906020018083116106b057829003601f168201915b505050505081565b600681815481106106e557600080fd5b9060005260206000209060080201600091509050806000018054610708906117e2565b80601f0160208091040260200160405190810160405280929190818152602001828054610734906117e2565b80156107815780601f1061075657610100808354040283529160200191610781565b820191906000526020600020905b81548152906001019060200180831161076457829003601f168201915b5050505050908060010160009054906101000a900473ffffffffffffffffffffffffffffffffffffffff16908060020180546107bc906117e2565b80601f01602080910402602001604051908101604052809291908181526020018280546107e8906117e2565b80156108355780601f1061080a57610100808354040283529160200191610835565b820191906000526020600020905b81548152906001019060200180831161081857829003601f168201915b50505050509080600301805461084a906117e2565b80601f0160208091040260200160405190810160405280929190818152602001828054610876906117e2565b80156108c35780601f10610898576101008083540402835291602001916108c3565b820191906000526020600020905b8154815290600101906020018083116108a657829003601f168201915b5050505050908060040180546108d8906117e2565b80601f0160208091040260200160405190810160405280929190818152602001828054610904906117e2565b80156109515780601f1061092657610100808354040283529160200191610951565b820191906000526020600020905b81548152906001019060200180831161093457829003601f168201915b505050505090806005018054610966906117e2565b80601f0160208091040260200160405190810160405280929190818152602001828054610992906117e2565b80156109df5780601f106109b4576101008083540402835291602001916109df565b820191906000526020600020905b8154815290600101906020018083116109c257829003601f168201915b5050505050908060060154908060070160009054906101000a900460ff16908060070160019054906101000a900460ff16905089565b60048054610a22906117e2565b80601f0160208091040260200160405190810160405280929190818152602001828054610a4e906117e2565b8015610a9b5780601f10610a7057610100808354040283529160200191610a9b565b820191906000526020600020905b815481529060010190602001808311610a7e57829003601f168201915b505050505081565b60066040518061012001604052808b81526020018a73ffffffffffffffffffffffffffffffffffffffff168152602001898152602001888152602001878152602001868152602001858152602001841515815260200183151581525090806001815401808255809150506001900390600052602060002090600802016000909190919091506000820151816000019080519060200190610b4492919061102e565b5060208201518160010160006101000a81548173ffffffffffffffffffffffffffffffffffffffff021916908373ffffffffffffffffffffffffffffffffffffffff1602179055506040820151816002019080519060200190610ba892919061102e565b506060820151816003019080519060200190610bc592919061102e565b506080820151816004019080519060200190610be292919061102e565b5060a0820151816005019080519060200190610bff92919061102e565b5060c0820151816006015560e08201518160070160006101000a81548160ff0219169083151502179055506101008201518160070160016101000a81548160ff0219169083151502179055505050505050505050505050565b60055481565b60606006805480602002602001604051908101604052809291908181526020016000905b82821015611025578382906000526020600020906008020160405180610120016040529081600082018054610cb6906117e2565b80601f0160208091040260200160405190810160405280929190818152602001828054610ce2906117e2565b8015610d2f5780601f10610d0457610100808354040283529160200191610d2f565b820191906000526020600020905b815481529060010190602001808311610d1257829003601f168201915b505050505081526020016001820160009054906101000a900473ffffffffffffffffffffffffffffffffffffffff1673ffffffffffffffffffffffffffffffffffffffff1673ffffffffffffffffffffffffffffffffffffffff168152602001600282018054610d9e906117e2565b80601f0160208091040260200160405190810160405280929190818152602001828054610dca906117e2565b8015610e175780601f10610dec57610100808354040283529160200191610e17565b820191906000526020600020905b815481529060010190602001808311610dfa57829003601f168201915b50505050508152602001600382018054610e30906117e2565b80601f0160208091040260200160405190810160405280929190818152602001828054610e5c906117e2565b8015610ea95780601f10610e7e57610100808354040283529160200191610ea9565b820191906000526020600020905b815481529060010190602001808311610e8c57829003601f168201915b50505050508152602001600482018054610ec2906117e2565b80601f0160208091040260200160405190810160405280929190818152602001828054610eee906117e2565b8015610f3b5780601f10610f1057610100808354040283529160200191610f3b565b820191906000526020600020905b815481529060010190602001808311610f1e57829003601f168201915b50505050508152602001600582018054610f54906117e2565b80601f0160208091040260200160405190810160405280929190818152602001828054610f80906117e2565b8015610fcd5780601f10610fa257610100808354040283529160200191610fcd565b820191906000526020600020905b815481529060010190602001808311610fb057829003601f168201915b50505050508152602001600682015481526020016007820160009054906101000a900460ff161515151581526020016007820160019054906101000a900460ff16151515158152505081526020019060010190610c82565b50505050905090565b82805461103a906117e2565b90600052602060002090601f01602090048101928261105c57600085556110a3565b82601f1061107557805160ff19168380011785556110a3565b828001600101855582156110a3579182015b828111156110a2578251825591602001919060010190611087565b5b5090506110b091906110b4565b5090565b5b808211156110cd5760008160009055506001016110b5565b5090565b60006110e46110df846116af565b61168a565b905082815260208101848484011115611100576110ff6118a8565b5b61110b8482856117a0565b509392505050565b600081359050611122816118c8565b92915050565b600081359050611137816118df565b92915050565b60008135905061114c816118f6565b92915050565b600082601f830112611167576111666118a3565b5b81356111778482602086016110d1565b91505092915050565b60008135905061118f8161190d565b92915050565b6000602082840312156111ab576111aa6118b2565b5b60006111b984828501611128565b91505092915050565b60008060008060008060008060006101208a8c0312156111e5576111e46118b2565b5b60008a013567ffffffffffffffff811115611203576112026118ad565b5b61120f8c828d01611152565b99505060206112208c828d01611113565b98505060408a013567ffffffffffffffff811115611241576112406118ad565b5b61124d8c828d01611152565b97505060608a013567ffffffffffffffff81111561126e5761126d6118ad565b5b61127a8c828d01611152565b96505060808a013567ffffffffffffffff81111561129b5761129a6118ad565b5b6112a78c828d01611152565b95505060a08a013567ffffffffffffffff8111156112c8576112c76118ad565b5b6112d48c828d01611152565b94505060c06112e58c828d01611180565b93505060e06112f68c828d0161113d565b9250506101006113088c828d0161113d565b9150509295985092959850929598565b60006020828403121561132e5761132d6118b2565b5b600061133c84828501611180565b91505092915050565b6000611351838361147c565b905092915050565b61136281611746565b82525050565b61137181611746565b82525050565b6000611382826116f0565b61138c8185611713565b93508360208202850161139e856116e0565b8060005b858110156113da57848403895281516113bb8582611345565b94506113c683611706565b925060208a019950506001810190506113a2565b50829750879550505050505092915050565b6113f58161176a565b82525050565b6114048161176a565b82525050565b6000611415826116fb565b61141f8185611724565b935061142f8185602086016117af565b611438816118b7565b840191505092915050565b600061144e826116fb565b6114588185611735565b93506114688185602086016117af565b611471816118b7565b840191505092915050565b600061012083016000830151848203600086015261149a828261140a565b91505060208301516114af6020860182611359565b50604083015184820360408601526114c7828261140a565b915050606083015184820360608601526114e1828261140a565b915050608083015184820360808601526114fb828261140a565b91505060a083015184820360a0860152611515828261140a565b91505060c083015161152a60c086018261155d565b5060e083015161153d60e08601826113ec565b506101008301516115526101008601826113ec565b508091505092915050565b61156681611796565b82525050565b61157581611796565b82525050565b600060208201905081810360008301526115958184611377565b905092915050565b600060208201905081810360008301526115b78184611443565b905092915050565b60006101208201905081810360008301526115da818c611443565b90506115e9602083018b611368565b81810360408301526115fb818a611443565b9050818103606083015261160f8189611443565b905081810360808301526116238188611443565b905081810360a08301526116378187611443565b905061164660c083018661156c565b61165360e08301856113fb565b6116616101008301846113fb565b9a9950505050505050505050565b6000602082019050611684600083018461156c565b92915050565b60006116946116a5565b90506116a08282611814565b919050565b6000604051905090565b600067ffffffffffffffff8211156116ca576116c9611874565b5b6116d3826118b7565b9050602081019050919050565b6000819050602082019050919050565b600081519050919050565b600081519050919050565b6000602082019050919050565b600082825260208201905092915050565b600082825260208201905092915050565b600082825260208201905092915050565b600061175182611776565b9050919050565b600061176382611776565b9050919050565b60008115159050919050565b600073ffffffffffffffffffffffffffffffffffffffff82169050919050565b6000819050919050565b82818337600083830152505050565b60005b838110156117cd5780820151818401526020810190506117b2565b838111156117dc576000848401525b50505050565b600060028204905060018216806117fa57607f821691505b6020821081141561180e5761180d611845565b5b50919050565b61181d826118b7565b810181811067ffffffffffffffff8211171561183c5761183b611874565b5b80604052505050565b7f4e487b7100000000000000000000000000000000000000000000000000000000600052602260045260246000fd5b7f4e487b7100000000000000000000000000000000000000000000000000000000600052604160045260246000fd5b600080fd5b600080fd5b600080fd5b600080fd5b6000601f19601f8301169050919050565b6118d181611746565b81146118dc57600080fd5b50565b6118e881611758565b81146118f357600080fd5b50565b6118ff8161176a565b811461190a57600080fd5b50565b61191681611796565b811461192157600080fd5b5056fea2646970667358221220d70369b5ae571a00dd1b9ec7815e8ab986c37e07c0c4a3a133862d0b08ed387964736f6c63430008070033",
  "immutableReferences": {},
  "source": "// SPDX-License-Identifier: GPL-3.0\n// Solidity program to demonstrate\n// how to create a contract\npragma solidity >=0.7.0 <0.9.0;\npragma abicoder v2;\n// Creating a contract\ncontract ABO {\t\n    // Declaring variable\n    string public projectID;\n    string public ngoID;\n    string public donorID;\n    string public contract_text;\n    string public label;\n    uint public contract_value;\n\n    struct abo_contract{\n        string projectID;\n        address ngoID_a;\n        string ngoID;\n        string donorID;\n        string contract_text;\n        string label;\n        uint contract_value;\n        bool contract_valid;\n        bool contract_finished;\n    }\n\n    abo_contract[] public abo_contracts;\n\n\n    function ngo_create(string memory _projectID, address _ngoID_a, string memory _ngoID, string memory _donorID, string memory _contract_text, string memory _label, uint _contract_value, bool _contract_valid, bool _contract_finished) public {\n        abo_contracts.push(abo_contract(_projectID, _ngoID_a, _ngoID, _donorID, _contract_text, _label, _contract_value, _contract_valid, _contract_finished));\n    }\n\n    function donor_accept(string memory _projectID, address _ngoID_a, string memory _ngoID, string memory _donorID, string memory _contract_text, string memory _label, uint _contract_value, bool _contract_valid, bool _contract_finished) public payable{\n        require(msg.value >= 10 ether);\n        abo_contracts.push(abo_contract(_projectID, _ngoID_a, _ngoID, _donorID, _contract_text, _label, _contract_value, _contract_valid, _contract_finished));\n        // actua; payment\n    }\n\n    function allcontracts() public view returns(abo_contract[] memory) {\n        return abo_contracts;\n    }\n\n    // function getUser(string memory _projectID) public view returns (string memory) {\n    //     return abo_contracts[_projectID].projectID;\n    // }\n\n    function transfer(address payable _receiver) external {\n        _receiver.transfer(10 ether);\n  }\n}",
  "sourcePath": "/Users/kiliansprenkamp/Desktop/OneDrive - Universitat Zurich UZH/uzh/BlockchainSchool/truffle_project/abetterocean/contracts/ABO.sol",
  "compiler": {
    "name": "solc",
    "version": "0.8.7+commit.e28d00a7.Emscripten.clang"
  },
  "schemaVersion": "3.4.4",
  "updatedAt": "2022-01-27T10:41:28.144Z",
  "networkType": "ethereum",
  "devdoc": {
    "kind": "dev",
    "methods": {},
    "version": 1
  },
  "userdoc": {
    "kind": "user",
    "methods": {},
    "version": 1
  }
}